:100000000C94841D0C94C41D0C94C41D0C94C41D2C
:100010000C94C41D0C94C41D0C94C41D0C94C41DDC
:100020000C94C41D0C94C41D0C94C41D0C94C41DCC
:100030000C94C41D0D945D2C0C94C41D0C94C41D13
:100040000C94C41D0C946CCE0C94C41D0C94C41D53
:100050000C94C41D0C94FACC0C94C41D0D94F92B73
:100060000C94C41D0C948C9F0C94829F0C94C41D02
:100070000C94C41D0C94C41D0C94C41D0C94C41D7C
:100080000C94C41D0C94C41D0C94C41D0C94C41D6C
:100090000C94C41D0C94C41D0C94C41D0C94C41D5C
:1000A0000C94C41D0C94C41D0C94C41D0C94C41D4C
:1000B0000C94C41D0C94C41D0C94C41D0C94C41D3C
:1000C0000C94C41D0C94C41D0C94C41D0C94C41D2C
:1000D0000C94C41D0C94C41D0C94C41D0C94C41D1C
:1000E0000C94C41D05A84CCDB2D44EB93836A90223
:1000F0000C50B9918688083CA6AAAA2ABE00000026
:10010000803F07634236B79BD8A71A39685618AEA6
:10011000BAAB558C1D3CB7CC5763BD6DEDFD753E3C
:10012000F6177231BF000000803F08000000BE9249
:100130002449123EABAAAA2ABECDCCCC4C3E00002C
:100140000080BEABAAAAAA3E00000000BF000000CB
:10015000803F0000000000084178D3BB4387D113E3
:100160003D190E3CC3BD4282AD2B3E68EC8276BE8B
:10017000D98FE1A93E4C80EFFFBE01C4FF7F3F0055
:10018000000000000D94B52A0D94FB2A0D94162B47
:100190000D944F2B0D9488360D9479360D94E22AE8
:1001A0000D946F080D94E82A0D94040A0D946A2B9F
:1001B0000D94D02A0D94F9350D9467360D94CC2A00
:1001C0000D949E330D94C22A0D94962A0D94D42A30
:1001D0000D94B12A0D949C080D94D0080D94BC2A5E
:1001E0000D94752B0D942D370D949B2A0D94DE2ABA
:1001F0000D942C3D0D94DA2A0D94AD2A0D94C62A47
:100200000D94602B0D94EC2A0D945A2B0D944B2BCE
:100210000D94B92A4E414E494E495459494E46CD46
:10022000CCCC3D0AD7233C17B7D13877CC2B3295AD
:1002300095E6241FB14F0A000020410000C842008B
:10024000401C4620BCBE4CCA1B0E5AAEC59D740055
:10025000407A10F35A00A0724E18090010A5D4E895
:100260000000E87648170000E40B54020000CA9A28
:100270003B000000E1F5050000809698000000407A
:10028000420F000000A086010000001027000000BF
:1002900000E803000000006400000000000A000005
:1002A0000000000100000000002C76D888DC674FB9
:1002B0000823DFC1DFAE59E1B1B796E5E3E453C6E9
:1002C0003AE651997696E8E6C28426EB898C9B62E1
:1002D000ED407C6FFCEFBC9C9F40F2BAA56FA5F48B
:1002E00090055A2AF75C936B6CF9676DC11BFCE0B3
:1002F000E40D47FEF520E6B500D0ED902E03009406
:100300003577050080841E080000204E0A0000009A
:10031000C80C333333330F986E12831141EF8D21A4
:1003200014893BE65516CFFEE6DB18D1844B381B0B
:10033000F77C1D901DA4BBE424203284725E2281D0
:1003400000C9F124ECA1E53D27554E4C4F41442016
:1003500046494C414D454E54004C4F41442046497E
:100360004C414D454E540046494C414D454E54205C
:100370004348414E47450041425300504C41004DD7
:10038000383400446F6E65207072696E74696E67F0
:100390002066696C650A004D3737004D3331002EF9
:1003A0000A0044656C6574696F6E206661696C65EE
:1003B000642C2046696C653A200046696C652064AF
:1003C000656C657465643A0043616E6E6F74206F8E
:1003D00070656E2073756264697220002569730010
:1003E00025696D20256973002569682025696D20C0
:1003F00025697300256964202569682025696D20B9
:10040000256973002569792025696420256968209C
:1004100025696D2025697300436F6F6C696E672EC7
:100420002E2E0045312025530042656420436F6F16
:100430006C696E672E2E2E004265642048656174DB
:10044000696E672E2E2E0023646566696E652044F2
:10045000454641554C545F0000626564004B642082
:10046000004B6920004B7020005049442074756E89
:10047000696E6720646F6E65002066696E697368D7
:100480006564212050757420746865206C617374F4
:10049000204B702C204B6920616E64204B642063DC
:1004A0006F6E7374616E74732066726F6D20626517
:1004B0006C6F7720696E746F20436F6E6669677525
:1004C000726174696F6E2E680A005049442041754C
:1004D000746F74756E6500206661696C65642120B7
:1004E00074696D656F75740A0050494420417574D4
:1004F0006F74756E65004175746F74756E652066F6
:1005000061696C6564212054696D656F75742E0096
:10051000206661696C6564212054656D7065726147
:100520007475726520746F6F20686967680A00507F
:100530004944204175746F74756E650050494420BC
:100540004379636C65730025532025692F25690065
:10055000204B643A2000204B693A2000204B703A2F
:10056000200020436C617373696320504944200A62
:1005700000204E6F206F76657273686F6F740A008B
:100580002054753A2000204B753A2000206D617888
:100590003A2000206D696E3A200020643A20002045
:1005A000626961733A200048656174696E672E2E36
:1005B0002E002073746172740A0050494420417502
:1005C000746F74756E65004175746F74756E652017
:1005D0006661696C6564212054656D706572617433
:1005E00075726520746F6F20686967682E002066D9
:1005F00061696C6564212054656D70657261747504
:10060000726520746F6F20686967680A00504944FA
:10061000204175746F74756E6500504944204175B2
:10062000746F74756E6500206661696C6564212065
:10063000426164206865617465722069640A0050D3
:100640004944204175746F74756E65004572723A45
:10065000207574663820666F6E74206E6F74206922
:100660006E697469616C697A65642E004572723ACC
:10067000207574663820666F6E74206E6F74206902
:100680006E697469616C697A65642E004572723AAC
:10069000207574663820666F6E74206E6F742069E2
:1006A0006E697469616C697A65642E0020002000AF
:1006B0003A00200020003A003A002568753A2530BB
:1006C0003268750025303268753A25303268750019
:1006D00025303268752725303268750025687564C5
:1006E0002025303268753A253032687500426564DD
:1006F00000456E636C6F73757265004500200020C5
:100700000020002000200025002020202020202084
:10071000002020202000657272001FE020102010B1
:1007200020101020102020102010303008400480AD
:1007300003001FE03FF03FF03FF01FE01FE03FF0FD
:100740003FF03FF00FC0078003003FFFF03800701C
:1007500030FC3020FC102078102030102C00D02EDF
:1007600031D02F7BD02F7BD02E31D02C00D0203019
:100770001020781020FC1030FC303800703FFFF063
:100780003FFFF03800703186302387102787902F85
:1007900087D02F03D0203010207810207810203000
:1007A000102F03D02F87D0278790238710318630D2
:1007B0003800703FFFF01FFFF81FFFF804104002E1
:1007C0000820020820041040082080104100104139
:1007D000000820800410400000001FFFF81FFFF8F1
:1007E00063616E63656C005072696E742041626F64
:1007F00072746564004469736D69737300554920B0
:1008000041626F72746564004D32350052657375D4
:100810006D650055492050617573650050617573B1
:10082000696E672E2E2E00726573756D65004D32F0
:1008300034003F0049676E6F7265005265736574DE
:1008400000496E697469616C697A6520454550524A
:100850004F4D004C6F6164206D6D00556E6C6F6183
:1008600064206D6D004D33303320553120452569AE
:100870002053256900504944204175746F74756E8A
:1008800065202A004D696E2054726176656C205394
:1008900070656564004D696E2056656C6F636974A0
:1008A00079004D61782040205370656564004D618A
:1008B00078204520416363656C004D6178204020BD
:1008C000416363656C0054726176656C20416363BB
:1008D000656C005265747261637420416363656C7A
:1008E00000416363656C005A2050726F6265205747
:1008F000697A6172640050726F6265205A204F6697
:10090000667365740050726F62652059204F666689
:100910007365740050726F62652058204F6666736D
:10092000657400402073746570732F6D6D004164B1
:1009300076616E6365642053657474696E677300D5
:100940003F0043616E63656C00496E6974004D340D
:10095000323800496E697469616C697A6520454571
:1009600050524F4D0046696C616D656E7400546560
:100970006D70657261747572650053746570732F64
:100980006D6D0050726F6265204F6666736574739B
:10099000004A756E6374696F6E204465760041632A
:1009A00063656C65726174696F6E004D6178205388
:1009B0007065656420286D6D2F7329005365742060
:1009C000486F6D65204F66667365747300436F6E84
:1009D00066696775726174696F6E0053746F7265D2
:1009E0002053657474696E6773004C6F61642053A3
:1009F000657474696E677300426564205472616D3A
:100A00006D696E67005A2050726F62652057697A6F
:100A10006172640050726F6265205A204F6666737F
:100A20006574004661646520486569676874004FB5
:100A30006666004F6E00426564204C6576656C69A1
:100A40006E67004C6576656C2042656400473239FC
:100A50004E00473239004175746F20486F6D650054
:100A60004D6F74696F6E003F004E65787420436F60
:100A7000726E657200446F6E65004E657874004753
:100A800032384C3000426564004E6F7A7A6C6500F3
:100A900046616E20537065656400436F6E666967DA
:100AA00075726174696F6E00526573746F72652040
:100AB00044656661756C7473004C6F6164205365A6
:100AC0007474696E67730053746F72652053657434
:100AD00074696E677300536F756E64005072656859
:100AE000656174202420436F6E66004F6666004F78
:100AF0006E0052756E6F75742053656E736F720061
:100B00004C434420436F6E74726173740050726F73
:100B10006265205A204F6666736574004164766191
:100B20006E6365642053657474696E6773004D610C
:100B3000696E204D656E75004D3730322054256446
:100B4000004D36303020423020542564004D37307F
:100B500032203B2564004D3730312054256400435A
:100B600068616E67652046696C616D656E740050E2
:100B700072656865617420437573746F6D0050729F
:100B800065686561742024004261636B004D3630F6
:100B900030423000436F6E74696E7565004F666653
:100BA000004F6E0052756E6F75742053656E736FD3
:100BB00072005075726765206D6F72650052455303
:100BC000554D45204F5054494F4E533A00505249CD
:100BD0004E5420504155534544002F002000202002
:100BE0004E6F7A7A6C653A20005061726B696E675D
:100BF0002E2E2E0000005761697420666F72006609
:100C0000696C616D656E74206368616E6765007400
:100C10006F207374617274005761697420666F721B
:100C20000066696C616D656E7420756E6C6F6164D1
:100C300000004E6F7A7A6C652068656174696E6732
:100C400000506C6561736520776169742E2E2E00EB
:100C500000507265737320627574746F6E00746FE8
:100C60002068656174206E6F7A7A6C650000496E49
:100C7000736572742066696C616D656E7400616E77
:100C80006420707265737320627574746F6E007483
:100C90006F20636F6E74696E7565005761697420AB
:100CA000666F720066696C616D656E74206C6F6151
:100CB000640000507265737320427574746F6E0027
:100CC000746F20726573756D65207072696E740043
:100CD000005761697420666F72207072696E7400CB
:100CE000746F20726573756D652E2E2E000057612E
:100CF000697420666F720066696C616D656E742040
:100D000070757267650000256C642E25696D00455D
:100D10007874727564656420546F74616C004C6FF4
:100D20006E67657374204A6F622054696D65005068
:100D300072696E742054696D6500436F6D706C65E7
:100D4000746564003A20005072696E7420436F75B8
:100D50006E74003A20003135300035004245443A87
:100D6000204550434F53203130304B0052756E6157
:100D70007761792057617463683A204F4E004D6166
:100D8000782054656D7000323735004D696E2054FF
:100D9000656D7000350045313A204550434F532072
:100DA0003130304B005053550047656E65726963B2
:100DB0000050726F746F636F6C00312E30004261AF
:100DC00075640031313532303000574545444F208D
:100DD0003632420042696C696E656172204C6576FC
:100DE000656C696E6700457874727564657273002E
:100DF00031006D61726C696E66772E6F7267005597
:100E00006C74696D6174653200323032332D303765
:100E10002D3234006275676669782D322E312E7856
:100E2000004D61726C696E005072696E746572205B
:100E3000537461747300546865726D6973746F7272
:100E40007300426F61726420496E666F0050726970
:100E50006E74657220496E666F004D61696E204D3B
:100E6000656E75003F004261636B0053746F7000E4
:100E70003F004E4F00594553004368616E6765203F
:100E800046696C616D656E74004E6F204D656469D6
:100E9000610053656C6563742066726F6D204D65EB
:100EA000646961004368616E6765204D65646961CE
:100EB000004D32310041626F7574205072696E745A
:100EC000657200436F6E66696775726174696F6EF3
:100ED0000054656D7065726174757265004D6F7454
:100EE000696F6E00526573756D65205072696E741E
:100EF0000054756E650053746F70205072696E7483
:100F0000005061757365205072696E7400496E6699
:100F10006F2053637265656E003F00537461727495
:100F2000205072696E740043616E63656C0050728C
:100F3000696E740043616E6E6F7420656E746572C5
:100F4000207375626469723A200002202E2E004DD3
:100F500061696E204D656E75002100486F74656E85
:100F60006420746F6F20636F6C64004261636B0078
:100F700050726F63656564004D6F766520457874C7
:100F80007275646572004732385A0047323859002A
:100F9000486F6D6520400047323858004175746FC6
:100FA00020486F6D65004D6F74696F6E0044697302
:100FB00061626C65205374657070657273004D38A2
:100FC00034004D34382050726F626520546573745C
:100FD000004732384F0A4D343820503130004265D6
:100FE00064204C6576656C696E6700486F6D696E4C
:100FF00067004D61696E204D656E75004732385A45
:101000000043616E63656C00446F6E65004D6F76E2
:101010006520246D6D00302E303235004D6F7665C1
:1010200020302E316D6D004D6F766520316D6D0075
:1010300050726F6265205A204F6666736574005A5D
:10104000004D6F7665204E6F7A7A6C6520746F2044
:10105000426564004D6F76696E6720746F20507230
:101060006F62696E6720506F730050726F62696EB5
:1010700067205A205265666572656E636500486F29
:101080006D696E672058595A0047323800507265B2
:10109000686561742024204265640050726568654B
:1010A0006174202420456E640054656D7065726122
:1010B00074757265007B037703436F6F6C646F77A1
:1010C0006E005072656865617420240046616E2070
:1010D000537065656400426564004E6F7A7A6C6592
:1010E000004D61696E204D656E75004261627973D5
:1010F000746570205A00000C0F00FE07022503BB28
:10110000017FFE08FE08FE05080806000040F0C842
:101110008888987810050808060000C0F888888834
:101120008888F80505050600012030F830200508FC
:10113000080600002070F820202020E0050909069C
:1011400000FF2070A8A8B888887020070505070050
:1011500001D86C366CD80509090600FFF8A8888804
:10116000888888A8F8050A0A0600FE2050505050CA
:1011700088A8A8887003030306000340A040FFFF6F
:10118000FFFFFFFFFFFFFFFFFFFFFFFFFFFFFFFF6F
:10119000FFFFFFFF0000000605FF01070706020032
:1011A00080808080800080030303060105A0A0A04A
:1011B00005060606000050F85050F85005090906CB
:1011C00000FF2070A8A07028A8702005070706005F
:1011D00000C8C8102040989805070706000040A0E6
:1011E000A040A890680103030602058080800309DF
:1011F000090601FF2040408080804040200309090B
:101200000601FF804040202020404080050707065F
:10121000000020A8702070A8200505050600012008
:1012200020F820200203030601FFC04080050101D1
:10123000060003F8020202060100C0C00507070607
:1012400000000810102040408005070706000070CD
:101250008898A8C8887003070706010040C040406E
:101260004040E0050707060000708808102040F89D
:10127000050707060000F808103008887005070702
:1012800006000010305090F8101005070706000007
:10129000F880F008088870050707060000304080D5
:1012A000F0888870050707060000F8081010202055
:1012B0002005070706000070888870888870050779
:1012C000070600007088887808106002050506018E
:1012D00000C0C000C0C00206060601FFC0C000C0BA
:1012E00040800305050601012040804020050303DE
:1012F000060002F800F803050506010180402040C1
:1013000080050707060000708810202000200507D0
:10131000070600007088B8A8B880700507070600A7
:1013200000708888F8888888050707060000F0485C
:1013300048704848F00507070600007088808080E4
:101340008870050707060000F04848484848F0053F
:101350000707060000F88080F08080F80507070680
:101360000000F88080F0808080050707060000708C
:10137000888080988870050707060000888888F8AC
:10138000888888030707060100E04040404040E0AD
:1013900005070706000038101010109060050707B9
:1013A0000600008890A0C0A09088050707060000EE
:1013B000808080808080F805070706000088D8A814
:1013C000888888880507070600008888C8A8988844
:1013D00088050707060000708888888888700507D8
:1013E00007060000F08888F0808080050707060067
:1013F0000070888888A89068050707060000F088B4
:1014000088F0A090880507070600007088807008A3
:101410008870050707060000F820202020202005FE
:1014200007070600008888888888887005070706EF
:10143000000088888888505020050707060000882B
:10144000888888A8A85005070706000088885020CB
:101450005088880507070600008888502020202033
:10146000050707060000F80810204080F803090966
:101470000601FFE080808080808080E0050707060D
:101480000000804040201010080309090601FFE019
:1014900020202020202020E0050303060005205006
:1014A000880501010600FEF80303030601058040DC
:1014B00020050505060000700878887805070706EE
:1014C00000008080F0888888F0050505060000701F
:1014D00080808870050707060000080878888888DB
:1014E000780505050600007088F08070050707067E
:1014F0000000304840E04040400507070600FE700D
:101500008888887808700507070600008080F088C2
:101510008888880307070601004000C0404040E07B
:101520000409090601FE100030101010109060052B
:10153000070706000080808890E090880307070670
:101540000100C04040404040E0050505060000D0D5
:10155000A8A8A8A8050505060000B0C888888805C1
:10156000050506000070888888700507070600FEDC
:10157000F0888888F080800507070600FE78888854
:1015800088780808050505060000B0C88080800539
:10159000050506000078807008F0050707060000C2
:1015A0002020F820202018050505060000888888DE
:1015B00098680505050600008888885020050505FF
:1015C0000600008888A8A850050505060000885078
:1015D0002050880507070600FE8888885020408034
:1015E000050505060000F8102040F803090906016A
:1015F000FF2040404080404040200109090602FF92
:101600008080808080808080800309090601FF80BF
:10161000404040204040408005030306000248A8A7
:1016200090FF434F4D4D554E49434154494F4E0055
:1016300044525952554E004552524F525300494E52
:10164000464F004543484F004572726F72207772D3
:101650006974696E6720746F20454550524F4D2163
:101660000A0053544F505045442E20005072696E6A
:101670007465722073746F70706564206475652082
:10168000746F206572726F72732E204669782074B1
:101690006865206572726F7220616E642075736573
:1016A000204D39393920746F2072657374617274FA
:1016B0002E202854656D706572617475726520699D
:1016C000732072657365742E2053657420697420CD
:1016D00061667465722072657374617274696E6795
:1016E000290A004E6F20436865636B73756D207720
:1016F000697468206C696E65206E756D6265722C08
:10170000204C617374204C696E653A20004E6F2046
:10171000436865636B73756D2077697468206C69C5
:101720006E65206E756D6265722C204C617374203D
:101730004C696E653A2000636865636B73756D2054
:101740006D69736D617463682C204C617374204CF7
:10175000696E653A20004C696E65204E756D626554
:1017600072206973206E6F74204C617374204C6911
:101770006E65204E756D6265722B312C204C617345
:1017800074204C696E653A20004D3131300053654C
:101790007269616C20737461747573206D69736D07
:1017A000617463680A005344207265616420657245
:1017B000726F720A00746F6F206D75636820696EB6
:1017C0006163746976652074696D65202D20637589
:1017D0007272656E7420636F6D6D616E643A200085
:1017E0002121204B494C4C20636175736564206254
:1017F000792000627573793A207061757365642091
:10180000666F7220696E7075740A00627573793A3A
:101810002070617573656420666F722075736572E0
:101820000A00627573793A2070726F636573736929
:101830006E670A004D656469612052656D6F76655B
:1018400064004D6564696120496E736572746564F6
:10185000004D363030002066696C616D656E745FD6
:1018600072756E6F7574200066696C616D656E745B
:101870005F72756E6F757420540046696C616D659A
:101880006E7452756E6F7574205400506C65617380
:1018900065205265736574005052494E544552207C
:1018A00048414C5445440025533A20255300706F5D
:1018B0007765726F6666004B494C4C45442E20009C
:1018C0005072696E7465722068616C7465642E2054
:1018D0006B696C6C28292063616C6C6564210A005B
:1018E0006563686F3A004572726F723A0042696CC4
:1018F000696E656172204C6576656C696E6720471C
:101900007269643A0A006E6F74696669636174692A
:101910006F6E200070726F6D70745F002F2F6163A7
:1019200074696F6E3A00626567696E00656E640087
:1019300073686F7700627574746F6E00486F7465BA
:101940006E6420746F6F20636F6C640A00473236D8
:101950002043616E63656C656400473236204865DC
:101960006174696E67204E6F7A7A6C650047323613
:101970002048656174696E6720426564005761693B
:1019800074696E6720666F72206865617475702E69
:101990000A004669786564204C656E67746820505B
:1019A00072696D6500446F6E65205072696D696E75
:1019B00067004D616E75616C207072696D696E674C
:1019C0002E2E2E004C656176696E672047323600F8
:1019D0003F53706563696669656420582C592063BC
:1019E0006F6F7264696E617465206F7574206F66C5
:1019F00020626F756E64732E0A003F28522965704D
:101A00006561742076616C7565206E6F7420706CF2
:101A100061757369626C653B206D757374206265D6
:101A2000206174206C6561737420312E0A003F536D
:101A30007065636966696564206E6F7A7A6C65208B
:101A400074656D7065726174757265206E6F742057
:101A5000706C61757369626C652E0A003F53706526
:101A60006369666965642066696C616D656E742082
:101A700073697A65206E6F7420706C61757369622A
:101A80006C652E0A003F5370656369666965642062
:101A90007072696D65206C656E677468206E6F7416
:101AA00020706C61757369626C652E0A003F53701B
:101AB00065636966696564206E6F7A7A6C65207308
:101AC000697A65206E6F7420706C61757369626CE1
:101AD000652E0A003F52657472616374696F6E20EF
:101AE0004D756C7469706C696572206D75737420C6
:101AF0006265207370656369666965642E0A003FDC
:101B000053706563696669656420526574726163C8
:101B100074696F6E204D756C7469706C69657220A4
:101B20006E6F7420706C61757369626C652E0A004B
:101B30003F537065636966696564206C617965729D
:101B400020686569676874206E6F7420706C6175B9
:101B50007369626C652E0A0043292E0A003F537098
:101B600065636966696564206265642074656D708B
:101B700065726174757265206E6F7420706C61752A
:101B80007369626C65202834302D0047323620732B
:101B900074617274696E672E2E2E0A004F46460AD3
:101BA0000046616465204865696768742000426585
:101BB00064204C6576656C696E6720004661696CCF
:101BC000656420746F20656E61626C652042656497
:101BD000204C6576656C696E670A00496E76616CAB
:101BE0006964206D6573682E0A0050726F62696EB9
:101BF0006720506F696E740025532025692F256971
:101C0000002E0A002F0050726F62696E67206D65AA
:101C1000736820706F696E742000202844525952F6
:101C2000554E2900473239204175746F2042656452
:101C3000204C6576656C696E67003F20284C2C52FD
:101C40002C462C4229206F7574206F6620626F75B8
:101C50006E64732E0A003F2856296572626F7365A1
:101C6000206C6576656C20696D706C617573696256
:101C70006C652028302D34292E0A00426164205AD8
:101C80002076616C75650A004E6F2062696C696E22
:101C900065617220677269640A00446576696174DF
:101CA000696F6E0025533A2025730046696E69738B
:101CB000686564210A003A207A3A2000206F662085
:101CC00000476F696E6720746F3A20580043570AC7
:101CD00000206469723A0020616E676C653A0053B7
:101CE00074617274207261646975733A004D34389E
:101CF00020506F696E740025533A2025642F2564A7
:101D000000506F736974696F6E696E6720746865DF
:101D10002070726F62652E2E2E0A003F4C6567732D
:101D2000206F66206D6F76656D656E7420696D70CD
:101D30006C61757369626C652028302D3135292EF0
:101D40000A003F2028582C5929206F7574206F668F
:101D500020626F756E64732E0A0050726F62652088
:101D60006F7574206F6620626F756E6473003F53E9
:101D7000616D706C652073697A65206E6F74207078
:101D80006C61757369626C652028342D3530292E9D
:101D90000A004D3438205A2D50726F62652052650A
:101DA000706561746162696C6974792054657374DB
:101DB0000A003F2856296572626F7365206C65764C
:101DC000656C20696D706C61757369626C65202843
:101DD000302D34292E0A005374616E6461726420C0
:101DE000446576696174696F6E3A20002052616EB5
:101DF00067653A2000204D61783A2000204D696ED9
:101E00003A2000205369676D613A20004D65616E8C
:101E10003A200020580020204D61783A2000200010
:101E200020204D696E3A2000203B200020204D32BA
:101E300031312053007061757365640048656164D9
:101E40002063616E6E6F74206265207061726B65D5
:101E50006400506175736500496E73657274206625
:101E6000696C616D656E7420616E6420707265735B
:101E70007320627574746F6E0A00526568656174D0
:101E800020446F6E6500526568656174696E672EE7
:101E90002E2E005265686561740048656174657234
:101EA0002054696D656F757400507265737320629C
:101EB0007574746F6E20746F2068656174206E6F26
:101EC0007A7A6C650A004E6F7A7A6C65205061727E
:101ED0006B65640044697361626C6552756E6F7501
:101EE000740050757267654D6F726500506175734F
:101EF0006564004C6F61642046696C616D656E7449
:101F0000205400496E736572742066696C616D655A
:101F10006E7420616E6420707265737320627574D4
:101F2000746F6E0A00726573756D65640052657337
:101F3000756D696E670020496E76616C6964206515
:101F4000787472756465722000536C6565702E2E0E
:101F50002E005A2050726F626520506173742042C7
:101F600065640A005A2050726F6265205061737474
:101F700020426564004732384C30005A2050726F5E
:101F8000626520506173742042656400205A3A00F3
:101F900020593A0042656420583A004D6573682024
:101FA000706F696E74206F7574206F662072616E39
:101FB00067650A00626567696E00436F6E74696EDB
:101FC0007565004D302053746F70004D312053748F
:101FD0006F7000436C69636B20746F20526573757A
:101FE0006D652E2E2E004E6F204D6F76652E0045AE
:101FF0006E642066696C65206C6973740A004265C2
:1020000067696E2066696C65206C6973740A004E9E
:102010006F206D656469610A00526573756D696E44
:102020006720534400706175736500526573756D68
:102030006500506175736520534400286E6F2066FB
:10204000696C65290043757272656E742066696CEF
:10205000653A20004E6F74205344207072696E748C
:10206000696E670A005344207072696E74696E6706
:10207000206279746520005072696E742074696DF5
:10208000653A20000A53746174733A2046696C61A2
:102090006D656E7420757365643A20002C204C6F5A
:1020A0006E67657374206A6F623A2000546F7461C2
:1020B0006C2074696D653A200053746174733A2022
:1020C000002C204661696C65643A20002C2046692A
:1020D0006E69736865643A20005072696E74733A71
:1020E000200053746174733A20006F6B006F666652
:1020F0000043163E16371630162216444542554701
:102100003A004D3131322053687574646F776E0038
:102110004D313133205300556C74696D61746532F3
:10212000204F46462E0020204D39322058002F2FB8
:10213000004D31343520533C696E6465783E206F24
:102140007574206F662072616E67652028302D31AE
:10215000290A0020204D323031205800204500202F
:10216000204D32303320580020520020204D323094
:1021700034205000204A0020540020530020204DDD
:102180003230352042003F4A206F7574206F662040
:1021900072616E67652028302E303120746F2030D8
:1021A0002E33290A0020204D323036205800250ACF
:1021B0000046523A0020466C6F773A2000204400D7
:1021C00020490020204D3330312050002044002091
:1021D000490020204D33303420500020204D32352E
:1021E0003020430064697300656E0043290061621A
:1021F0006C656420286D696E2074656D70200043E5
:102200006F6C6420657874727564657320617265A3
:1022100020004F4646004F4E00203B20486F73740D
:102220002068616E646C696E67200046696C616D40
:10223000656E742072756E6F757420004D34323186
:1022400020696E636F727265637420706172616D74
:10225000657465722075736167650A004D65736802
:1022600020706F696E74206F7574206F66207261C4
:102270006E67650A004F66667365747320417070FF
:102280006C696564004572723A20546F6F20666114
:10229000722100546F6F206661722066726F6D202C
:1022A0007265666572656E636520706F696E740A2B
:1022B00000454550524F4D204F4B0A00203B002017
:1022C000550020204D363033204C004361703A00D9
:1022D000434F4E4649475F4558504F5254004D4575
:1022E00041545041434B00434F4F4C45525F54457E
:1022F0004D5045524154555245004348414D424589
:10230000525F54454D504552415455524500455039
:102310005F4241425953544550004241425953543F
:10232000455050494E470041524353004D4F544988
:102330004F4E5F4D4F44455300544845524D414C1C
:102340005F50524F54454354494F4E0045585445F1
:102350004E4445445F4D323000435553544F4D5F1A
:102360004649524D574152455F55504C4F414400EC
:102370004C464E5F5752495445004C4F4E475F46BE
:10238000494C454E414D45004155544F5245504FE3
:1023900052545F53445F5354415455530053445F68
:1023A000575249544500524550454154004D554CF3
:1023B00054495F564F4C554D450053444341524498
:1023C0000050524F4D50545F535550504F5254008F
:1023D000484F53545F414354494F4E5F434F4D4D17
:1023E000414E445300454D455247454E43595F5079
:1023F000415253455200434153455F4C494748546D
:102400005F4252494748544E45535300544F474743
:102410004C455F4C494748545300534F465457412D
:1024200052455F504F574552004255494C445F500A
:10243000455243454E54004C4556454C494E475F26
:1024400044415441005A5F50524F42450052554E4C
:102450004F5554004155544F4C4556454C00505231
:10246000494E545F4A4F420050524F4752455353D2
:10247000004155544F5245504F52545F54454D50B2
:10248000004155544F5245504F52545F504F5300E6
:10249000564F4C554D455452494300454550524FB7
:1024A0004D0042494E4152595F46494C455F545296
:1024B000414E534645520053455249414C5F584F97
:1024C0004E5F584F4646004649524D574152455F70
:1024D0004E414D453A4D61726C696E20627567667A
:1024E00069782D322E312E782028417567202032D0
:1024F00020323032332031313A32393A30312920EA
:10250000534F555243455F434F44455F55524C3AF4
:102510006769746875622E636F6D2F4D61726C69A7
:102520006E4669726D776172652F4D61726C696E6E
:102530002050524F544F434F4C5F56455253494FD2
:102540004E3A312E30204D414348494E455F545953
:1025500050453A556C74696D617465322045585424
:1025600052554445525F434F554E543A31205555CC
:1025700049443A63656465326132662D34316132B3
:102580002D343734382D396231322D633535633689
:10259000326633363766660020286D6D2900203B91
:1025A00000205A0020590020204D38353120580095
:1025B000290A0020746F20003F5A206F7574206F25
:1025C000662072616E6765202800290A0020746FFA
:1025D00020003F59206F7574206F662072616E670E
:1025E0006520282D00290A0020746F20003F582004
:1025F0006F7574206F662072616E676520282D00EC
:102600004572723A20454550524F4D20436F7272C9
:10261000757074004572723A20454550524F4D20F6
:10262000435243004572723A20454550524F4D2067
:1026300053697A65004572723A20454550524F4DB4
:102640002056657273696F6E0042616279737465BA
:1026500070204000466C6F770046616E20537065B5
:10266000656400426564004E6F7A7A6C6500537051
:10267000656564004D61696E204D656E75006F7013
:10268000656E00545249474745524544003A200080
:1026900066696C616D656E74007A5F6D696E007954
:1026A0005F6D617800785F6D6178005265706F7260
:1026B00074696E6720656E6473746F7020737461E3
:1026C0007475730A0020746F6F206C6F6E672065DD
:1026D0007874727573696F6E2070726576656E744A
:1026E00065640A0020636F6C64206578747275738A
:1026F000696F6E2070726576656E7465640A004855
:102700006F6D652025732046697273740000004860
:102710004300001643000000005761726E696E6747
:102720003A20486F6D696E672042756D702044696C
:102730007669736F72203C20310A000202040000A7
:1027400048430000164300002A430000A040000058
:10275000A040000000400000000100000001000057
:102760008000555555000000400033333300AAAABD
:102770002A004992240000002000C7711C0099998A
:102780001900D1451700555515003BB113002449D8
:10279000120011111100000010000F0F0F00E3389C
:1027A0000E0043790D00CCCC0C00C3300C00E8A225
:1027B0000B0064210B00AAAA0A00703D0A009DD8F4
:1027C0000900427B090092240900DCD308008888B4
:1027D00008001042080000000800F0C107008787C9
:1027E000070075500700711C07003EEB0600A1BCF6
:1027F00006006990060066660600703E06006118D5
:10280000060017F4050074D105005BB00500B29016
:102810000500627205005555050078390500B81E9F
:102820000500050505004EEC040087D40400A1BD99
:10283000040090A7040049920400C17D0400EE69E1
:102840000400C7560400444404005C32040008211C
:10285000040041100400000004003FF00300F8E011
:10286000030026D20300C3C30300CCB503003AA87B
:1028700003000A9B0300388E0300C08103009F758C
:102880000300D0690300505E03001D530300344869
:102890000300913D03003333030016290300381F62
:1028A000030097150300300C0300030303000BFA29
:1028B000020049F10200BAE802005CE002002DD8F3
:1028C00002002DD0020059C80200B0C0020031B988
:1028D0000200DAB10200AAAA0200A0A30200BC9C76
:1028E0000200FA9502005C8F0200DF8802008282FB
:1028F0000200457C02002776020027700200436A2E
:1029000002007C640200D05E02003F590200C853FE
:102910000200FFFDFCFAF8F6F4F2F0EEECEAE9E76B
:10292000E5E3E1E0DEDCDAD9D7D5D4D2D0CFCDCB28
:10293000CAC8C7C5C3C2C0BFBDBCBAB9B7B6B4B3B5
:10294000B2B0AFADACAAA9A8A6A5A4A2A1A09E9D15
:102950009C9A99989795949392908F8E8D8B8A8953
:1029600088878684838281807F7E7D7B7A79787771
:10297000767574737271706F6E6D6C6B6A6968676F
:10298000666564636261605F5E5D5C5B5A5958585E
:102990005756555453525150504F4E4D4C4B4A4A36
:1029A0004948474646454443424241403F3E3E3DFA
:1029B0003C3B3B3A393838373635353433323231AF
:1029C00030302F2E2E2D2C2B2B2A29292827272655
:1029D000252524232322212120201F1E1E1D1C1CEF
:1029E0001B1B1A191918181716161515141313127C
:1029F000121111100F0F0E0E0D0D0C0C0B0A0A09FF
:102A00000908080707060605050404030302020176
:102A10000000000048430000164300002A43000065
:102A20000000000000000000000053657474696E2F
:102A300067732053746F72656400290A00206279FD
:102A40007465733B20637263200053657474696E10
:102A500067732053746F72656420280045525200DA
:102A6000204D61726C696E3D563838290A00454523
:102A700050524F4D2076657273696F6E206D697389
:102A80006D617463682028454550524F4D3D0045A7
:102A90004550524F4D20496E697469616C697A6581
:102AA000640A0048617264636F646564204465660B
:102AB00061756C742053657474696E6773204C6F14
:102AC0006164656400454550524F4D2064617461F6
:102AD00073697A65206572726F722E0A0045727290
:102AE0003A20454550524F4D204352430020286321
:102AF000616C63756C6174656429210A0020213D55
:102B00002000454550524F4D20435243206D69737C
:102B10006D61746368202D202873746F7265642959
:102B20002000454550524F4D20436F7272757074AE
:102B30000A002053697A653A2000496E6465783A44
:102B4000200053746F7265642073657474696E67D6
:102B5000732072657472696576656400290A0020C5
:102B600062797465733B2063726320002073746F15
:102B70007265642073657474696E6773207265741E
:102B800072696576656420280000409C4500409C81
:102B90004500409C4500409C450000BC420000BCF4
:102BA000420000C8430000BC422823000028230044
:102BB00000282300001027000024F4D43050C38DD7
:102BC00020C3A24117828B7011127A900D826CDAA9
:102BD0000AA861E108C7586607615142061F4B5EAB
:102BE00005C145A6041B411204093D970372393102
:102BF000034136DB0266339202D4305302812E1D2C
:102C000002642CEE01762AC501B128A101102781AA
:102C1000018F2564012B244A01E1223401AD2120DA
:102C2000018D200C01811FFC00851EED00981DDF29
:102C300000B91CD200E71BC700201BBB00651AB2FD
:102C400000B319A9000A19A0006A189800D21792B7
:102C50000040178A00B616840032167E00B415793B
:102C6000003B157400C7146F0058146A00EE136619
:102C7000008813620026135E00C8125B006D1257B5
:102C80000016125500C111510070114E0022114C56
:102C900000D61049008D1046004710450002104232
:102CA00000C00F4000800F3E00420F3C00060F3A6C
:102CB00000CC0E3900930E37005C0E3500270E3421
:102CC00000F30D3200C10D3100900D2F00610D2F6A
:102CD00000320D2D00050D2C00D90C2A00AF0C2A56
:102CE00000850C28005D0C2800350C27000E0C25F3
:102CF00000E90B2500C40B2400A00B23007D0B2250
:102D0000005B0B21003A0B2100190B2000F90A1F70
:102D100000DA0A1F00BB0A1E009D0A1D00800A1C63
:102D200000640A1C00480A1C002C0A1B00110A1A25
:102D300000F7091A00DD091900C4091900AB0918C8
:102D400000930918007B091700640917004D091743
:102D50000036091600200915000B091500F60815A4
:102D600000E1081500CC081400B8081400A40813EA
:102D700000910813007E0813006B08120059081216
:102D8000004708120035081200230811001208112C
:102D90000001081000F1071100E0071000D0071033
:102DA00000C0070F00B1071000A1070F0092070F26
:102DB0000083070F0074070E0066070E0058070E09
:102DC000004A070E003C070E002E070D0021070DDC
:102DD0000014070D0007070D00FA060D00ED060CA4
:102DE00000E1060D00D4060C00C8060C00BC060C61
:102DF00000B0060B00A5060C0099060B008E060B12
:102E00000083060B0078060B006D060B0062060BB4
:102E10000057060A004D060A0043060B0038060A52
:102E2000002E060A00240609001B060A0011060AE5
:102E30000007060900FE050A00F4050900EB050974
:102E400000E2050900D9050900D0050900C70508F9
:102E500000BF050900B6050900AD050800A5050875
:102E6000009D050800950509008C050800840508EB
:102E7000007C050700750508006D0508006505075D
:102E8000005E050800560507004F050800470507C6
:102E9000004005070039050700320507002B05072C
:102EA00000240507001D050700160507000F05068D
:102EB000000905070002050600FC040700F50406EA
:102EC00000EF040700E8040600E2040600DC040644
:102ED00000D6040600D0040700C9040500C4040697
:102EE00000BE040600B8040600B2040600AC0406E6
:102EF00000A6040500A10406009B04050096040634
:102F000000900405008B040600850405008004057C
:102F1000007B04050076040600700405006B0405C0
:102F20000066040500610405005C04050057040503
:102F300000520405004D0405004804040044040543
:102F4000003F0405003A040400360405003104057E
:102F5000002C04040028040500230404001F0405B9
:102F6000001A04040016040400120405000D0404F1
:102F700000090404000504040001040500FC030426
:102F800000F8030400F4030400F0030400EC03045D
:102F900000E8030400E4030400E0030400DC03048D
:102FA00000D8030400D4030300D1030400CD0304BC
:102FB00000C9030400C50304000000000000000075
:102FC0000000000000000000000000000000000001
:102FD00000D1036D6403570D0347C6023B8B0232D9
:102FE00059022B2E0225090221E8011CCC011AB23C
:102FF00001179B011487011374011163010F540120
:103000000E46010D39010D2C010B21010A17010A91
:103010000D0109040108FC0008F40007ED0007E6B3
:103020000007DF0006D90006D30005CE0006C80061
:1030300005C30004BF0005BA0004B60004B20004D2
:10304000AE0004AA0004A60003A300049F00039C92
:1030500000039900039600039300029100038E0081
:10306000028C0003890002870003840002820002B0
:103070008000027E00027C00027A00027800027664
:1030800000017500027300027100017000026E0001
:10309000016D00026B00016A000268000167000216
:1030A0006500016400016300016200026000015FCD
:1030B00000015E00015D00015C00015B00015A003F
:1030C0000159000158000157000156000155000147
:1030D0005400015300015200015100005100015001
:1030E00000014F00014E00014D00004D00014C0059
:1030F000014B00014A00004A00014900014800005C
:103100004800014700014600004600014500004517
:10311000000144000143000043000142000042005E
:10312000014100004100014000004000013F00005B
:103130003F00013E00003E00013D00003D00013C1B
:1031400000003C00013B00003B00013A00003A0057
:103150000139000039000039000138000038000151
:103160003700003700003700013600003600003617
:103170000001350000350001340000340000340047
:103180000133000033000033000132000032000040
:103190003200013100003100003100003100013007
:1031A00000003000003000012F00002F00002F0031
:1031B000002F00012E00002E00002E00012D000027
:1031C0002D00002D00002D00012C00002C00002CF3
:1031D00000002C00012B00002B00002B00002B0016
:1031E000012A00002A00002A00002A00002A00010B
:1031F00029000029000029000029000128000028DA
:1032000000002800002800002800012700002700F7
:1032100000270000270000270001260000260000EC
:1032200026000026000026000026000125000025BB
:1032300000002500002500002500002500012400D5
:1032400000240000240000240000240000240001C9
:10325000230000230000230000230000230000239C
:1032600000012200002200002200002200002200B3
:1032700000220000220001210000210000210000A6
:103280002100002100002100002100012000002079
:10329000000020000020000020000020000020008E
:1032A000002000011F00001F00001F00001F000081
:1032B0001F00001F00001F000020436F756E742068
:1032C000583A00004265640045310045006265647B
:1032D000002C2073797374656D2073746F70706542
:1032E0006421204865617465725F49443A20004555
:1032F00072723A204D415854454D50004D4158543A
:10330000454D502074726967676572656400486551
:103310006174696E67204661696C65640048656127
:1033200074696E67206661696C6564004572723A03
:10333000204D494E54454D50004D494E54454D5039
:103340002074726967676572656400544845524D20
:10335000414C2052554E4157415900546865726D99
:10336000616C2052756E6177617900202F002040DA
:103370003A0020573A0020573A00496E76616C694E
:10338000642065787472756465720A007C3C3E5EE8
:103390002B3D3F2F5B5D3B3A2C2A225C007C3C3E60
:1033A0005E2B3D3F2F5B5D3B3A2C2A225C00436144
:1033B0006E6E6F74206F70656E20737562646972D3
:1033C00020004D6564696120496E69742046616919
:1033D0006C0053442063617264206F6B0A006F704D
:1033E000656E526F6F74206661696C65640A007661
:1033F0006F6C756D652E696E6974206661696C65A8
:10340000640A004E6F20534420636172640A0053C3
:103410004420636172642072656C65617365640A3F
:10342000000A4D3234004D3233202573002E0A003D
:103430006F70656E206661696C65642C2046696CEE
:10344000653A200046696C652073656C6563746538
:10345000640A002053697A653A200046696C652049
:103460006F70656E65643A2000454E4420535542A6
:10347000524F5554494E450A002220706F73002266
:1034800020706172656E743A2200535542524F5556
:1034900054494E452043414C4C2074617267657419
:1034A0003A220053756263616C6C204F76657266D8
:1034B0006C6F77004578636565646564206D61783D
:1034C00020535542524F5554494E452064657074FF
:1034D000683A0057726974696E6720746F20666974
:1034E0006C653A2000667265736800646F696E6788
:1034F000002066696C653A20004E6F7720002F61CE
:1035000075746F25632E6700FFE0FFD1A4AFFFD075
:10351000FFFEFFE0FFD1AEA5FFD0FFFEFFE0FFD131
:103520001000FFFEFFD0FFE0FFC1FFD1E240A0C8C6
:10353000A6A22FF800238127AC00AFFF64A5FF648B
:10354000FF64A4FFD0FFFE026D61726C696E667746
:103550002E6F7267006275676669782D322E312E84
:1035600078001FFFFFFFFFFFFF600000000001FF6A
:10357000400000000000FF8000000000007F83CFBB
:1035800000000C303F87FF80000C301F86798000E0
:103590000C000F8C30C7838C30E78C30CFC7CC3118
:1035A000F38C30DCECEC33B98C30D86C6C33198C88
:1035B00030D06C0C33198C30D86C0C33198C30DC57
:1035C0006C0E3B198C30CF7C079F198C30C77C0365
:1035D0008F1940000000000002600000000000069B
:1035E0001FFFFFFFFFFFF82001400130013B0140BA
:1035F0000136016001310170012C0190012701B0F9
:10360000012201C0011D01F0011801100213013057
:10361000020E016002090190020401C002FF0000D5
:1036200003FA004003F5008003F000D003EB002014
:1036300004E6007004E100E004DC004005D700C0AF
:1036400005D2004006CD00D006C8008007C3003078
:1036500008BE00F008B900C009B400B00AAF00B05D
:103660000BAA00D00CA500000EA000500F9B00C0BC
:103670001096005012910000148C00C0158700B005
:10368000178200B0197D00D01B7800001E73004027
:10369000206E0090226900F024640040275F0090B3
:1036A000295A00E02B5500102E500020304B0010FE
:1036B000324600E033410090353C0010373700704F
:1036C000383200A0392D00B03A2800A03B2300601A
:1036D0003C1E00103D1900903D1400103E0F00707C
:1036E0003E0A00C03E0500003F0000403FFBFF8057
:1036F0003FF6FFC03FF1FF2020506C616E6E657297
:1037000042756666657242797465733A2000204698
:10371000726565204D656D6F72793A200020436FA8
:103720006D70696C65643A204175672020322032E3
:103730003032330A00204C61737420557064617418
:1037400065643A20323032332D30372D3234207CCC
:1037500020417574686F723A204A6F652050726913
:103760006E74732033442053747566660A004D618D
:10377000726C696E206275676669782D322E312E03
:10378000780A0020536F6674776172652052657302
:1037900065740A00205761746368646F672052651E
:1037A0007365740A002042726F776E206F75742003
:1037B00052657365740A002045787465726E616C99
:1037C0002052657365740A00506F77657255700AF0
:1037D0000073746172740A004732385859004D31D1
:1037E000303031006F6B006572726F7220777269D2
:1037F00074696E6720746F2066696C650A00446F97
:103800006E6520736176696E672066696C652E0A45
:10381000004D323900456E6473746F707300255328
:1038200020256320256320256320256300205A3A44
:103830000020593A0020583A00656E6473746F7026
:1038400073206869743A200000000A0B02090C0D0D
:103850000E08070304010000000000000000000043
:103860000000000000000000000000000000000058
:103870000000000012111000000000000000000015
:1038800000000000000000000000000000004D6F7C
:10389000766520246D6D00302E303235004D6F7608
:1038A0006520302E316D6D004D6F766520316D6D68
:1038B000004D6F76652031306D6D004D6F7665205F
:1038C00041786973004D6F7665202A004D6F7665EB
:1038D000204000200053656C6563742066726F6D34
:1038E000204D656469610020002000486F6D696E9D
:1038F00067204661696C6564000101FF205A3A2027
:103900000020593A200042656420583A2000507245
:103910006F62696E67204661696C65640A00507267
:103920006F62696E67204661696C656400220A00F7
:10393000556E6B6E6F776E20636F6D6D616E643A5E
:10394000202200DB0FC93F45BCDA3F8FB30240FCA9
:10395000F0274056946140FE4B9B4084A5D840E040
:10396000231841346A5641E859974164DBD5416ECA
:10397000271742B4B75542CE1A9742C8AED542B5C2
:10398000885A43D40684BFA65FA7BF7443E0BF1024
:10399000B11AC01C2C58C0E8F697C0B849D6C04E22
:1039A0004E17C124D355C1802497C1A0B5D5C112EB
:1039B0001A17C244AE55C2781797C26CACD5C2670D
:1039C000885AC320746F6F206C6F6E67206578749F
:1039D000727573696F6E2070726576656E7465645A
:1039E0000A0020636F6C6420657874727573696F68
:1039F0006E2070726576656E7465640A0020453AC3
:103A000000205A3A0020593A00583A006F6B0A00D9
:103A1000526573656E643A2000000022002500287C
:103A2000002B002E003100340002010000050108C7
:103A3000010B0100002100240027002A002D003086
:103A400000330001010000040107010A010505051A
:103A500005070508080808020202020A0A08080405
:103A60000404040101010101010101030303030333
:103A7000030303040707070C0C0C0C0C0C0C0C02C2
:103A800002020206060606060606060B0B0B0B0BC9
:103A90000B0B0B01021020200808102040102040C2
:103AA0008002010201080402010102040810204002
:103AB0008080402010080402018004020180402020
:103AC0001008040201080402010102040810204049
:103AD000800102040810204080556C74696D617487
:103AE00065322052656164792E005072696E746986
:103AF0006E672E2E2E005072696E742050617573A1
:103B000065640000E000F80011241FBECFEFD1E291
:103B1000DEBFCDBF00E00CBF84B78093FF1614BE9C
:103B20000FB6F894A895809160008861809360003A
:103B3000109260000FBE13E0A0E0B2E0E4EDFBE9FC
:103B400002E00BBF02C007900D92A23FB107D9F768
:103B500026E1A2EFB3E001C01D92AF3FB207E1F74B
:103B60001DE1C3E8DDE100E006C021970109802FD7
:103B7000FE010F946149C238D10780E00807A9F718
:103B80000F9400350D94D94D0C94000060914C02B7
:103B900070914D02072E000C880B990B0F94AC42CC
:103BA0002AE037ED43E25CE30F940B4360936B0232
:103BB00070936C0280936D0290936E0208958091D1
:103BC000A908811104C0809194088093DA080895AF
:103BD00080917C168823F1F02FEF3FEF309356024F
:103BE00020935502815080937C16EAE6FEE08823FC
:103BF00051F08150990B2BE1289FF001299FF00D86
:103C00001124E259FA4E8BE1AFE4BEE001900D922F
:103C10008A95E1F720917C16211105C080918716C5
:103C200080648093871681E090E0A0E0B0E02111ED
:103C300003C080E090E0DC0180938C0890938D08B5
:103C4000A0938E08B0938F081092910881E0809322
:103C5000860883E080936A02089581E080930104DE
:103C6000089582E0809301040895FC014083089543
:103C7000CF93DF93EC01642F70E090E080E00F942D
:103C8000AC4229EC38EC48EC5EE30F94024A20E0A9
:103C900030E040E05FE30F9488490F946F4A6883F7
:103CA000DF91CF9108950C943F2EE091A90886E012
:103CB000E802F0011124E758F74F8091940890E052
:103CC000958384830895CF93DF93EC01CB01BA01F0
:103CD0000F94AC42688379838A839B83DF91CF9171
:103CE0000895CF93DF93EC01CB01BA010F94AC425E
:103CF000688379838A839B83DF91CF910895CF93E3
:103D0000DF93EC01CB01BA010F94AC4220E030E02C
:103D10004AE754E40F94024A27E137EB41ED58E3B8
:103D20000F948849688379838A839B83DF91CF913D
:103D30000895CF93DF93EC01CB01BA010F94AC420D
:103D400020E030E048EC52E40F94024A2FE632E1E2
:103D500043E85AE30F948849688379838A839B8375
:103D6000DF91CF910895CF93DF93EC01CB01BA019E
:103D70000F94AC4220E030E048EC52E40F94024A49
:103D80002FE632E143E85AE30F9488496883798348
:103D90008A839B83DF91CF910895CF93DF93EC01CA
:103DA000CB01BA010F94AC4220E030E040E251E494
:103DB0000F94024A2AE037ED43E25CE30F9488490E
:103DC000688379838A839B83DF91CF910895CF9312
:103DD000DF93EC01CB01BA010F94AA422AE037ED40
:103DE00043E25DE30F94024A0F946F4A688379833C
:103DF0008A839B83DF91CF910895CF93DF93EC016A
:103E0000CB01BA010F94AC422AE037ED43E25DE307
:103E10000F94024A688379838A839B83DF91CF91D1
:103E20000895CF93DF93EC01CB01BA010F94AC421C
:103E3000688379838A839B83DF91CF910895FC0106
:103E4000518340830895FC01A081B1811C92A2811D
:103E5000B3818C918F5F8C930280F381E02D9081F0
:103E60008CE0989F800D1124EFE2F5E113AE84AF52
:103E7000089590E080E00895CF93DF93C0919F0E66
:103E8000D091A00E81E0CE31D105E4F020E030E009
:103E900040E05FE360919B0E70919C0E80919D0EBF
:103EA00090919E0E0F9488490F946A4A6C1B7D0B6B
:103EB00077FF03C071956195710981E063307105E9
:103EC0000CF080E0DF91CF910895CF92DF92EF92D6
:103ED000FF926B017C0120E030E0A9010F94A64223
:103EE00087FD3EC06DEB77E386E095E3A701960181
:103EF0000F94884941E050E00E9431EB9B018BE236
:103F000037FF05C022273327261B370B8DE280930E
:103F10009B08C90164E670E00F944E49CB01EAE0CA
:103F2000F0E0BF010F944E49805D80939C08C90169
:103F3000BF010F944E49282FCB01BF010F944E496A
:103F4000805D80939D088EE280939E08205D209383
:103F50009F088BE998E0FF90EF90DF90CF90089555
:103F60006DEB77E386E095EBC1CF0F94AC4220E098
:103F700030E040E251E40F94024A2AE037ED43E298
:103F80005CE30F948849A1CF8F929F92AF92BF922A
:103F9000CF92DF92EF92FF92CF936B017C0120E0F2
:103FA00030E0A9010F94A64287FDC3C06DEB77E313
:103FB00086E095E3A70196010F9488496B017C0187
:103FC00020E030E0A9010F94A64287FF04C0F7FA71
:103FD000F094F7F8F09442E050E0C701B6010E9477
:103FE00031EB6B017C0160E280E4C81682E4D80604
:103FF0008FE0E806F1048CF0C701B60120E432E45A
:104000004FE050E00F94F248CA01B9012AE030E0D5
:1040100040E050E00F94F248605D6093980860E2E1
:1040200080EAC81686E8D80681E0E806F1048CF03C
:10403000C701B60120EA36E841E050E00F94F248AB
:10404000CA01B9012AE030E040E050E00F94F248A4
:10405000605D6093990860E280E1C81687E2D80647
:10406000E104F1048CF0C701B60120E137E240E041
:1040700050E00F94F248CA01B9012AE030E040E074
:1040800050E00F94F248605D60939A0860E288EE19
:10409000C81683E0D806E104F1048CF0C701B6012C
:1040A00028EE33E040E050E00F94F248CA01B90135
:1040B0002AE030E040E050E00F94F248605D609309
:1040C0009B08C701B60124E630E040E050E00F94C1
:1040D000F2488AE0882E912CA12CB12CCA01B9019A
:1040E000A50194010F94F248605D60939C088EE2F4
:1040F00080939D08C701B601A50194010F94F24871
:10410000C62FCA01B901A50194010F94F248605D60
:1041100060939E08C05DC0939F0888E998E0CF91A6
:10412000FF90EF90DF90CF90BF90AF909F908F90D7
:1041300008956DEB77E386E095EB3CCF0F94AC42AE
:1041400020E030E048EC52E40F94024A2FE632E1DE
:1041500043E85AE30F94884917CF0C9440F2CF9369
:10416000DF93CDB7DEB720E2488559856F818E8118
:104170000F944A27DF91CF91089570E090E080E09E
:104180000F94AC4229EC38EC48EC5EE30F94024A01
:1041900020E030E040E05FE30F9488490F946F4ADD
:1041A000862F0C94FDEACF92DF92EF92FF920F944C
:1041B000AC426B017C0120E030E0A9010F94A642E3
:1041C0002DEB37E346E055E387FF04C02DEB37E3E3
:1041D00046E055EBC701B6010F9488496B017C019D
:1041E00020E030E0A9010F94A64220E030E040E05A
:1041F0005FE387FF04C020E030E040E05FEBC701F1
:10420000B6010F9488490F946A4ACB01FF90EF9052
:10421000DF90CF900C94A0EACB010C94A0EA6091BF
:1042200094088FEF0D94543380919408682F0D9467
:1042300054336FEF809194080D945433909161063C
:1042400081E089270C943B79CF92DF92EF92FF9225
:10425000CF93DF9300D01F92CDB7DEB76B017C0107
:1042600020E030E0A9010F94A64287FD1BC06DEB52
:1042700077E386E095E3A70196010F948849698367
:104280007A838B839C83CE0101960E942EEC0F9043
:104290000F900F900F90DF91CF91FF90EF90DF90F4
:1042A000CF9008956DEB77E386E095EBE4CF0F9424
:1042B000AC4220E030E048EC52E40F94024A2FE692
:1042C00032E143E85AE30F948849BECF6DE374E4CA
:1042D00082E00D94C4316FE374E481E00D94C43145
:1042E00061E474E480E00D94C4316BE172E483E036
:1042F0000D94C431CF93DF93C091FE03D091FF039F
:10430000DF77209759F58091871683FD2BC00E9497
:10431000647D882319F180917F1690918016A09179
:104320008116B09182160097A105B105B9F0BC01C4
:10433000CD01615F784D8F4F9F4F20E137E240E024
:1043400050E00F94D048609183167091841680914C
:104350008516909186160F94D048E901CE01DF9121
:10436000CF910895C0E1D7E2F9CF862F0C94D4EA1B
:104370000C94A178CF93DF9300D000D01F921F92AE
:10438000CDB7DEB788E0E3E8F2E0DE0111960190F8
:104390000D928A95E1F7E0919305EE0FFF0BEB523A
:1043A000FD4F808191818330910509F445C08430AF
:1043B000910509F44BC0029741F480E090E0AAE235
:1043C000B3E489839A83AB83BC8380E090E0A0E868
:1043D000B0E48093770290937802A0937902B0932F
:1043E0007A0285EE92E00E94C6E22DEB32E047E7CA
:1043F00052E0BE016B5F7F4FCE0101960E94DFE26B
:1044000010927702109278021092790210927A023A
:1044100085EE92E00E94C6E2809193058F5F843022
:10442000F4F48093930528960FB6F894DEBF0FBE80
:10443000CDBFDF91CF91089588E0EDECF2E0DE0191
:10444000119601900D928A95E1F7BFCF80E090E040
:10445000A0EFB2E48D839E83AF83B887B6CF10926E
:104460009305E1CF61E084E998E00C946979CF93FA
:10447000DF9300D01F92CDB7DEB70F94AA426983B5
:104480007A838B839C83CE0101960E947FEB0F90F1
:104490000F900F900F90DF91CF9108950F94AA4243
:1044A0002AE037ED43E25DE30F94024A0F946F4A2E
:1044B000DECFCF92DF92EF92FF92CF93DF9300D0C7
:1044C0001F92CDB7DEB76B017C0120E030E0A9017F
:1044D0000F94A64287FD1BC06DEB77E386E095E362
:1044E000A70196010F94884969837A838B839C8303
:1044F000CE0101960E947FEB0F900F900F900F90CE
:10450000DF91CF91FF90EF90DF90CF9008956DEB0A
:1045100077E386E095EBE4CF0F94AC422AE037EDE9
:1045200043E25DE30F94024AC4CF0F94AC42C1CF83
:10453000CF92DF92EF92FF926B017C0120E030E09E
:10454000A9010F94A64287FD26C06DEB77E386E0B4
:1045500095E3A70196010F9488496B017C0120E047
:1045600030E0A9010F94A64220E030E040E05FE394
:1045700087FF04C020E030E040E05FEBC701B601F8
:104580000F9488490F946A4ACB01FF90EF90DF9017
:10459000CF900C94F6E96DEB77E386E095EBD9CFFD
:1045A0000F94AC42C5CFCF92DF92EF92FF92CF93A0
:1045B000DF9300D01F92CDB7DEB70F94AC4220E05E
:1045C00030E04AE754E40F94024A27E137EB41ED2B
:1045D00058E30F9488496B017C0120E030E0A90189
:1045E0000F94A6422DEB37E346E055E387FF04C066
:1045F0002DEB37E346E055EBC701B6010F94884930
:1046000069837A838B839C83CE0101960F9455280E
:104610000F900F900F900F90DF91CF91FF90EF9040
:10462000DF90CF9008950C94A8D30C94A8D30C9449
:104630005AD30C945AD30C945AD30C945AD30F9443
:104640002E1C0E94727D882331F08EE298E09093B8
:1046500037088093360861E087E298E00E94368F41
:104660000C94ABE9CF92DF92EF92FF92CF93C82FD9
:104670000F94AB2B6B017C0124EA30E74DE75FE33D
:1046800060911502709116028091170290911802A4
:104690000F94A64287FD18C08AEF90E0A0E0B0E03A
:1046A0008C0D9D1DAE1DBF1D809334059093350567
:1046B000A0933605B0933705C0930F02CF91FF90BA
:1046C000EF90DF90CF90089580E090E0DC01E8CF9C
:1046D000CF92DF92EF92FF920F931F930F94AB2B29
:1046E00000910A0510910B0520910C0530910D05E4
:1046F0006B017C01C01AD10AE20AF30A9701860114
:1047000037FD11C0209109052095209309056A54B1
:104710007C4F8F4F9F4F60930A0570930B058093DA
:104720000C0590930D0581E090910905911101C050
:1047300080E01F910F91FF90EF90DF90CF90089550
:10474000EF92FF920F931F93CF93DF93EC018B01B6
:104750007A018A859B858617970731F08881998130
:104760000F94F32E1B870A87B701888199810F94D4
:1047700015282E813F81820F932F911D9F838E8359
:1047800090E080E0DF91CF911F910F91FF90EF902B
:1047900008959F92AF92BF92CF92DF92EF92FF92D5
:1047A0000F931F93CF93DF93EC018B01942EA52ED3
:1047B0008A859B858617970731F0888199810F94A8
:1047C000F32E1B870A8788859985019649F5BC8059
:1047D0000A818E81080FC880D980D6015596ED9147
:1047E000FC91C6011995B80EE92CFA2C10E0F701DE
:1047F00021917F01211127C08E819F81810F911D01
:104800009F838E8390E080E0DF91CF911F910F9185
:10481000FF90EF90DF90CF90BF90AF909F90089562
:104820000E811F81692D7A2D888199810F94152819
:10483000800F912F911D288539852817390738F663
:1048400081E090E0E1CF4B2D602FC6010F944B2FFC
:10485000080F180FCCCFDF92EF92FF920F931F93A8
:10486000CF93DF93EC01D62E1CAD0BAD7C0184E021
:10487000E80EF11CE98DFA8DC7011995412F480FFB
:104880002D2D602FC7010F944B2F9BAD890F8BAF40
:1048900081E090E0DF91CF911F910F91FF90EF9019
:1048A000DF900895CF92DF92EF92FF920E94ECE8A2
:1048B0006B017C011FDDFC0120E030E0A9010097C5
:1048C00069F0A0E1B7E2A81BB90BA70196010F940C
:1048D0000E499F0150E040E00F94D048CA01B90151
:1048E000FF90EF90DF90CF900895CF93DF93C0912A
:1048F0001F05D09120052097D9F04CE050E060E2F0
:1049000070E081E195E00F943D4DCE0164E670E0EA
:104910000F943A49862F0E94D4EAFC0193E0A5E166
:10492000B5E001900D929A95E1F785E28093180524
:10493000DF91CF9108952F923F924F925F926F92A5
:104940007F928F929F92AF92BF92CF92DF92EF921F
:10495000FF920F931F93CF93DF93CDB7DEB72D97C1
:104960000FB6F894DEBF0FBECDBF8C01F62E45E02A
:1049700050E060E270E083E195E00F943D4DF092ED
:1049800011058AE380931205F80180809180A2804E
:10499000B380C501B40120E13EE040E050E00F9457
:1049A000D048D22EC32E022F132F8CE3282E312C69
:1049B000412C512CC501B401A20191010F94D048A2
:1049C000762E672ECA01B901A20191010F94D04839
:1049D0009E012F5F3F4F790130E8831631E5930642
:1049E00031E0A306B10408F447C07F936F93C80178
:1049F00068E170E00F943A499F938F93C501B40129
:104A000020E831E541E050E00F94D0483F932F93E8
:104A10008CED96E09F938F93FF92EF920F943F421D
:104A2000C7010F94B9410FB6F894DEBF0FBECDBFDA
:104A30002CE030E0A901481B5109CA01B7018F5E83
:104A40009A4F0F94624D2D960FB6F894DEBF0FBEAD
:104A5000CDBFDF91CF911F910F91FF90EF90DF902D
:104A6000CF90BF90AF909F908F907F906F905F900E
:104A70004F903F902F9008950115110599F46F9272
:104A80007F927F936F9380ED96E09F938F93FF9239
:104A9000EF920F943F420FB6F894DEBF0FBECDBF2A
:104AA00085E0C6CF0436110538F47F936F93CF921B
:104AB000DF9284EC96E0E9CF7F936F93CF92DF9201
:104AC0008AEB96E09F938F93FF92EF920F943F4271
:104AD0000FB6F894DEBF0FBECDBF86E0A9CFCF934F
:104AE000DF9300D01F92CDB7DEB70E94407D8823B0
:104AF00051F00E94ECE869837A838B839C8365E4A0
:104B0000CE01019618DF0F900F900F900F90DF915C
:104B1000CF910895CF93DF9300D01F92CDB7DEB72A
:104B20000E94407D8823D9F06091F4037091F503D1
:104B30008091F6039091F703611571058105910548
:104B400031F4B0DE672B682B692B49F0ABDE69834B
:104B50007A838B839C8362E5CE010196ECDE0F9015
:104B60000F900F900F90DF91CF910895CF92DF9229
:104B7000EF92FF920F931F93CF93DF93CDB7DEB7E2
:104B80002C970FB6F894DEBF0FBECDBFF0906A151C
:104B9000E0906B152091080521111DC04CE656E0F0
:104BA0006E2D8F2D0F94B62F90E080E0F80EF092CE
:104BB0006A15E0926B1599272C960FB6F894DEBF14
:104BC0000FBECDBFDF91CF911F910F91FF90EF905E
:104BD000DF90CF900895C0903715D090381523E31B
:104BE00035E13A8329832F2D30E03C832B832E2D12
:104BF00030E03E832D8318861F827A8769871C8662
:104C00001B8609EC13E29E012F5F3F4F4FE85BEBE1
:104C1000BC01C6010F94AC1BB60183E395E10F9470
:104C2000F32E8F819885C2CF843021E0920714F053
:104C300084E091E09093CC0E8093CB0E0C9440F2E4
:104C40008091940890919508EFCFEF92FF920F9387
:104C50001F93CF93DF9300D000D000D01F921F92FC
:104C6000CDB7DEB77C0120919405422F022E000CB7
:104C7000550B80919505833091F1843049F181E4A1
:104C80009BE05F932F939F938F938E010F5F1F4F36
:104C90001F930F930F943F42C701C6DF4FE350E0CD
:104CA000B80188E398E00F948F4D0F900F900F900C
:104CB0000F900F900F902B960FB6F894DEBF0FBE9B
:104CC000CDBFDF91CF911F910F91FF90EF9008958D
:104CD0008DE49BE027FDD5CF88E39BE0D2CF86E52E
:104CE0009BE0CFCFE091A90886E0E802F001112413
:104CF000E758F74F80819181A8CF8091CB0E90919A
:104D0000CC0EA3CF282F1092A50880918C089091EB
:104D10008D08A0918E08B0918F08B7FF08C010923F
:104D20008C0810928D0810928E0810928F08809136
:104D30009905882331F080918C0880939008109217
:104D40008608809185081816FCF4082E000C990B33
:104D5000821B910920919008022E000C330B28171A
:104D6000390794F097FF02C090E080E080939008AC
:104D7000092E000CAA0BBB0B80938C0890938D0816
:104D8000A0938E08B0938F08809190086623A9F0B5
:104D900090919108891714F48093910820919108BB
:104DA000022E000C330B2C5F3F4F482F082E000CB7
:104DB000550B241735071CF48450809391080895EF
:104DC0000F931F93522F20912D1530912E152817D8
:104DD000390781F1109203042091FE033091FF0303
:104DE00037FF04C01092FF031092FE0390932E151C
:104DF00080932D158B0130E020E000938C081093F8
:104E00008D0820938E0830938F084093910850931B
:104E1000850885539B4321F4109204041092870562
:104E200082E080936A0281E0809386081092960562
:104E3000109292051F910F91089520E040E070E0DC
:104E400060E085E591E4BCDF81E08093040410928A
:104E5000B4081092B308089581E08093040410927E
:104E6000AF0810924C06E1EFFEE080859185A285A7
:104E7000B38580939C0590939D05A0939E05B09368
:104E80009F05108611861286138680916106809395
:104E90009B0580E00E943B7989E890E19093370878
:104EA0008093360820E040E070E060E08FEB97E30D
:104EB00087CF20E040E070E060E085E791E280CFBE
:104EC0000E9456D3882339F020E040E070E060E093
:104ED0008CEE90E375CFEDCFCF93C1E0C093040487
:104EE000FC0180819181A281B3818093150290930E
:104EF0001602A0931702B093180220E040E070E081
:104F000060E080919208909193085ADFC093030467
:104F1000CF910895CF93DF9300D01F92CDB7DEB726
:104F20008DEC9CECACECBCE389839A83AB83BC83B3
:104F3000CE010196D1DF0F900F900F900F90DF916F
:104F4000CF910895CF93DF9300D01F92CDB7DEB7F6
:104F50008DEC9CECACECBDE389839A83AB83BC8382
:104F6000CE010196B9DF0F900F900F900F90DF9157
:104F7000CF910895CF93DF9300D01F92CDB7DEB7C6
:104F800080E090E0A0E8BFE389839A83AB83BC8391
:104F9000CE010196A1DF0F900F900F900F90DF913F
:104FA000CF910895CF93DF9300D01F92CDB7DEB796
:104FB00080E090E0A0E2B1E489839A83AB83BC8374
:104FC000CE01019689DF0F900F900F900F90DF9127
:104FD000CF910895FC0180819181A281B38180935A
:104FE000150290931602A0931702B093180220E0C6
:104FF00040E070E060E083E494E4E2CECF93DF939E
:1050000000D01F92CDB7DEB78DEC9CECACECBCE3CE
:1050100089839A83AB83BC83CE010196DBDF0F903B
:105020000F900F900F90DF91CF910895CF93DF9362
:1050300000D01F92CDB7DEB78DEC9CECACECBDE39D
:1050400089839A83AB83BC83CE010196C3DF0F9023
:105050000F900F900F90DF91CF910895CF93DF9332
:1050600000D01F92CDB7DEB780E090E0A0E8BFE3AC
:1050700089839A83AB83BC83CE010196ABDF0F900B
:105080000F900F900F90DF91CF9108958091CB0EEC
:105090009091CC0E0E942079811107C08DE89BE091
:1050A0009093370880933608089520E040E070E040
:1050B00060E08FEC96E484CE81E08093040410924B
:1050C000AF0810924C068FE79AE0909337088093D0
:1050D000360820E040E070E060E089EB99E370CEB4
:1050E00080914C0687708730A1F48091610680938F
:1050F0009B0580E00E943B791092930520E040E000
:1051000070E060E08CE691E35BDE81E080939205E5
:1051100031C9089520E040E070E060E085E39BE362
:105120004FCE1092DA080E944BCDF4CF8EEB9DE06B
:105130000E94EFBFEFDF0D942E1C1092FD03109222
:1051400062020E94647D9091871680FB97F990938C
:10515000871661E080EE97E00E94368F0E94957D71
:1051600045EF57E06DEF77E085E00F94AE2287EED4
:1051700097E00F94391FCECF6111609314024093D2
:105180000204EFEFE80FEB3008F035C00E2E000CF4
:10519000FF0B8827E153F74D8F4F0D946149FC2891
:1051A000FF28DA28E428E728EA28F628ED28FB2853
:1051B000F028F3288DE19BE321E02093040420E014
:1051C00040E070E060E0FCCD83E29BE3F5CF86E257
:1051D0009BE3F2CF89E29BE3EFCF8CE29BE3ECCF42
:1051E0008FE29BE3E9CF82E39BE3E6CF10920104D9
:1051F0008DEC95E4E1CF8ECF8AE19BE3DDCF80E2B9
:105200009BE3DACF8EE499E09093370880933608D9
:1052100081CF0F931F93CF93DF93CDB7DEB76E97F8
:105220000FB6F894DEBF0FBECDBF282F082E000C9E
:10523000330B90911002409111028F3F39F0F90128
:10524000EE0FFF1FEE5EFD4F908141814F939F93C4
:105250003F938F9385E698E09F938F938E010F5F26
:105260001F4F1F930F930F943F424FE350E0B8013D
:1052700088E398E00F948F4D4DDF0FB6F894DEBFB2
:105280000FBECDBF6E960FB6F894DEBF0FBECDBF7A
:10529000DF91CF911F910F9108958FEFBACF809139
:1052A000A908B7CFCF93DF93C0918705CC23B1F086
:1052B000C150C093870589E0C89FE0011124CE5BEF
:1052C000DA4F6A817B812F814E818881998178DDD7
:1052D000888580930404DF91CF910895DF91CF9169
:1052E00019CF4F925F926F927F928F929F92AF925F
:1052F000BF92CF92DF92EF92FF920F931F93CF93C3
:10530000DF930091940861E081E0FCDCC09191089A
:1053100010E0000F111F0B541F4E95E0592E5C0E2C
:105320002DE8E22E20E1F22ED3E0DC1B39E1C32E82
:1053300031E2D32E4BE9A42E40E1B42E82E0782E48
:105340007C1A52EC852E50E1952E81E0682E6C1A65
:105350004C2E4194C11136C0809190088823B1F041
:1053600080916A02882359F081E090919008911110
:1053700080E024E049EA50E1642D0F944A27CF5F92
:10538000C511E8CF84E0809385080BC08091870821
:1053900010928708882321F385DF8091860888236F
:1053A000F9F2DF91CF911F910F91FF90EF90DF9075
:1053B000CF90BF90AF909F908F907F906F905F90B5
:1053C0004F900895C13089F5F8018591949110921C
:1053D000A9089093AD088093AC081092AB08109286
:1053E000AA0880919008813081F080916A02882318
:1053F00031F21F929F928F926F9281E0909190086C
:10540000913009F480C080E07EC0809187081092BE
:105410008708882351F380919408682F0F945433A0
:1054200080918608882309F3BCCFC23009F048C0B8
:10543000F801859194911092A9089093AD088093FA
:10544000AC081092AB081092AA08809190088230A4
:10545000D1F080916A02882309F491CFDF92CF9234
:10546000BF92AF927F9281E090919008923009F0C4
:1054700080E08F930E94AF200F900F900F900F90BD
:105480000F900F907CCF8091870810928708882317
:1054900001F30E941921809186088823D1F281CFDF
:1054A00080918708109287088823F1F06091940812
:1054B0008FEF0F945433809186088823A9F071CF21
:1054C000C33009F05CCFF801859194911092A9083E
:1054D0009093AD088093AC081092AB081092AA0884
:1054E000809190088330E1F280916A02882309F468
:1054F00046CF1F92FF92EF92DF9381E09091900848
:10550000933009F080CF8F930E94AF200F900F90BF
:105510000F900F900F9033CF3F924F925F926F9208
:105520007F928F929F92AF92BF92CF92DF92EF9233
:10553000FF920F931F93CF93DF9361E081E0E2DB53
:10554000C091910885E0682E6C0E02E096E8E92E85
:105550009FE0F92ED4E0DC1B772473942BE8C22E55
:105560002FE0D22E13E01C1B37E9A32E3FE0B32E11
:10557000502E5C1A49E8842E40E1942E472C4C1A98
:105580003C2E3194C11137C0809190088823B1F02E
:1055900080916A02882359F081E0909190089111DE
:1055A00080E024E046EA5FE0632D0F944A27CF5F56
:1055B000C611E8CF85E0809385080BC080918708ED
:1055C00010928708882321F36DDE80918608882356
:1055D000F9F2DF91CF911F910F91FF90EF90DF9043
:1055E000CF90BF90AF909F908F907F906F905F9083
:1055F0004F903F900895C13001F5909190089130FF
:1056000069F080916A02882391F281E0913009F07B
:1056100080E020E24CE95FE0642DC7CF80918708ED
:1056200010928708882369F3909237088092360891
:1056300080918608882329F3CCCFC23009F065C059
:105640001092A9081092AD081092AC081092AB0805
:105650001092AA0890919008923071F080916A029D
:10566000882309F4A4CF81E0923009F080E020E2A1
:1056700040E95FE0652D99CF8091870810928708F7
:10568000882361F3B0923708A0923608809186088B
:10569000882321F39ECF7092A9081092AD08109232
:1056A000AC081092AB081092AA0890919008933021
:1056B00071F080916A02882309F479CF81E09330F8
:1056C00009F080E020E240E95FE0612F6ECF809139
:1056D000870810928708882361F3D0923708C09218
:1056E000360880918608882321F373CF809187083C
:1056F000109287088823E1F0F0923708E09236088C
:10570000809186088823A1F064CFC33021F2C43091
:1057100009F04DCF0093A9081092AD081092AC0883
:105720001092AB081092AA08909190089430F1F270
:1057300080916A02882309F43ACF81E0943009F01D
:1057400080E020E240E95FE06D2F2FCF109204044B
:10575000A9CDFC0180819181A281B3818093F90E52
:105760009093FA0EA093FB0EB093FC0E10923302AE
:1057700080919B050E943B79E9CFCF93DF9300D0C6
:105780001F92CDB7DEB784EA95E0E3DF8091A005F4
:105790009091A105A091A205B091A30580937702F5
:1057A00090937802A0937902B0937A020E9473E4F6
:1057B00080E090E0A0EAB0E489839A83AB83BC8365
:1057C00061E0CE0101960F94C4220F900F900F90CC
:1057D0000F90DF91CF910895D0CF8CE995E0B9DF9C
:1057E0008091AF088B7F8093AF0880914C068B7FB0
:1057F00080934C068CEF9FE0909337088093360897
:10580000089580E090E0A0E8B0E480937702909360
:105810007802A0937902B0937A0285EE92E00E941A
:10582000C6E280919B050E943B7990CFE09187056D
:10583000E63028F581E08E0F8093870540918C0833
:1058400050918D0860918E0870918F082091910879
:10585000909185088091040439E0E39FF0011124C0
:10586000EE5BFA4FA0912D15B0912E15B183A08358
:105870004283538364837583268397838087089547
:1058800020918A05211107C090938905809388058E
:1058900081E080938A05CADF20E040E070E060E0AC
:1058A00082ED99E38DDA81E0809304040E94CBD3EA
:1058B0004DCF8CE198E0E4DF81E0809304044CE07C
:1058C00058E063E178E084E00F94AE2286EF9AE33B
:1058D0000F94391F88E098E090933708809336083A
:1058E00008952F923F924F925F926F927F928F9284
:1058F0009F92AF92BF92CF92DF92EF92FF920F935F
:105900001F93CF93DF9300D000D0CDB7DEB71C013B
:105910007A8369832B833C834D835E83270138011F
:1059200081E08093860882DF83E080936A02309270
:1059300086052092850589819A81909384058093BC
:1059400083058B819C81AD81BE8180937F0590937F
:105950008005A0938105B093820540927B0550920B
:105960007C0560927D0570927E05A0928C08B092B5
:105970008D08C0928E08D0928F0890922E1580923A
:105980002D158C8D9D8D90937A05809379058E8D44
:105990008093780526960FB6F894DEBF0FBECDBF74
:1059A000DF91CF911F910F91FF90EF90DF90CF90FB
:1059B000BF90AF909F908F907F906F905F904F902F
:1059C0003F902F90089563E972E084E690E00F9491
:1059D000170870E060E08AE090E00F9417086AEB27
:1059E00072E084E690E00D9417080E94BEE5EBCFCC
:1059F0008111E9CF68E270E080E991E00D94170829
:105A00000E944ECFF5CF0F942B00F2CF0E94BEE53F
:105A10000E944ECFEDDF7ECBCF93DF93CDB7DEB7C5
:105A20008E8187FF03C01092110E80E09091110EBD
:105A3000282F082E000C330B9217130609F09CF444
:105A40008093110E9E01275F3F4F4F81588564E57B
:105A500070E088ED94E10F946E421092100E109257
:105A60000F0E10920E0EDF91CF910895CF93DF931A
:105A7000CDB7DEB7A1970FB6F894DEBF0FBECDBF8E
:105A800067FF03C01092110E60E05091110E262F97
:105A9000062E000C330B5217130609F024F5609301
:105AA000110E19821F8E442339F14EE150E0BC01E2
:105AB000CE0101960F94DA4144E550E0BE016F5FDC
:105AC0007F4F88ED94E10F948F4D84E590E099A38A
:105AD00088A3CE0180960F94E91B1092100E1092AD
