:100000000C94741D0C94B41D0C94B41D0C94B41D6C
:100010000C94B41D0C94B41D0C94B41D0C94B41D1C
:100020000C94B41D0C94B41D0C94B41D0C94B41D0C
:100030000C94B41D0D94DA290C94B41D0C94B41DC9
:100040000C94B41D0C9421CB0C94B41D0C94B41DD1
:100050000C94B41D0C94AFC90C94B41D0D94762966
:100060000C94B41D0C94FF9D0C94F59D0C94B41D40
:100070000C94B41D0C94B41D0C94B41D0C94B41DBC
:100080000C94B41D0C94B41D0C94B41D0C94B41DAC
:100090000C94B41D0C94B41D0C94B41D0C94B41D9C
:1000A0000C94B41D0C94B41D0C94B41D0C94B41D8C
:1000B0000C94B41D0C94B41D0C94B41D0C94B41D7C
:1000C0000C94B41D0C94B41D0C94B41D0C94B41D6C
:1000D0000C94B41D0C94B41D0C94B41D0C94B41D5C
:1000E0000C94B41D05A84CCDB2D44EB93836A90233
:1000F0000C50B9918688083CA6AAAA2ABE00000026
:10010000803F07634236B79BD8A71A39685618AEA6
:10011000BAAB558C1D3CB7CC5763BD6DEDFD753E3C
:10012000F6177231BF000000803F08000000BE9249
:100130002449123EABAAAA2ABECDCCCC4C3E00002C
:100140000080BEABAAAAAA3E00000000BF000000CB
:10015000803F0000000000084178D3BB4387D113E3
:100160003D190E3CC3BD4282AD2B3E68EC8276BE8B
:10017000D98FE1A93E4C80EFFFBE01C4FF7F3F0055
:10018000000000000D9493280D9434330D945728EB
:100190000D9413280D9465280D943F280D94C333B6
:1001A0000D94D7280D9439280D944D060D94DD2813
:1001B0000D9418280D94B4330D9449280D944328B8
:1001C0000D94A2330D94CC280D9478280D94F22828
:1001D0000D945B280D941B310D94673A0D94E7281C
:1001E0000D9481070D9432280D9469280D94EC0527
:1001F0000D945F280D942A280D9436280D94190625
:100200000D944D280D942E280D9468340D94C82813
:100210000D9451284E414E494E495459494E46CDB0
:10022000CCCC3D0AD7233C17B7D13877CC2B3295AD
:1002300095E6241FB14F0A000020410000C842008B
:10024000401C4620BCBE4CCA1B0E5AAEC59D740055
:10025000407A10F35A00A0724E18090010A5D4E895
:100260000000E87648170000E40B54020000CA9A28
:100270003B000000E1F5050000809698000000407A
:10028000420F000000A086010000001027000000BF
:1002900000E803000000006400000000000A000005
:1002A0000000000100000000002C76D888DC674FB9
:1002B0000823DFC1DFAE59E1B1B796E5E3E453C6E9
:1002C0003AE651997696E8E6C28426EB898C9B62E1
:1002D000ED407C6FFCEFBC9C9F40F2BAA56FA5F48B
:1002E00090055A2AF75C936B6CF9676DC11BFCE0B3
:1002F000E40D47FEF520E6B500D0ED902E03009406
:100300003577050080841E080000204E0A0000009A
:10031000C80C333333330F986E12831141EF8D21A4
:1003200014893BE65516CFFEE6DB18D1844B381B0B
:10033000F77C1D901DA4BBE424203284725E2281D0
:1003400000C9F124ECA1E53D27554E4C4F41442016
:1003500046494C414D454E54004C4F41442046497E
:100360004C414D454E540046494C414D454E54205C
:100370004348414E47450041425300504C41002004
:10038000286D6D29003B2000203B00205A00205999
:100390000020204D383531205800290A0020746F84
:1003A00020003F5A206F7574206F662072616E675F
:1003B00065202800290A0020746F20003F59206F13
:1003C0007574206F662072616E676520282D002984
:1003D0000A0020746F20003F58206F7574206F66EC
:1003E0002072616E676520282D002E0A0044656C1E
:1003F0006574696F6E206661696C65642C2046695E
:100400006C653A200046696C652064656C657465AE
:10041000643A0043616E6E6F74206F70656E207376
:10042000756264697220002569730025696D202555
:100430006973002569682025696D20256973002589
:100440006964202569682025696D20256973002568
:10045000697920256964202569682025696D202532
:10046000697300436F6F6C696E672E2E2E004531E5
:100470002025530042656420436F6F6C696E672EC0
:100480002E2E004265642048656174696E672E2EC9
:100490002E00206661696C656421204261642068D9
:1004A00065617465722069640A0050494420417591
:1004B000746F74756E650023646566696E652044AB
:1004C000454641554C545F004B6420004B69200069
:1004D0004B7020005049442074756E696E6720642B
:1004E0006F6E65002066696E6973686564212050CF
:1004F000757420746865206C617374204B702C20B7
:100500004B6920616E64204B6420636F6E7374616D
:100510006E74732066726F6D2062656C6F772069F0
:100520006E746F20436F6E66696775726174696F70
:100530006E2E680A00504944204175746F74756EC0
:100540006500206661696C6564212074696D656F62
:1005500075740A00504944204175746F74756E6556
:10056000004175746F74756E65206661696C6564B1
:10057000212054696D656F75742E00206661696C69
:100580006564212054656D706572617475726520B3
:10059000746F6F20686967680A005049442041758C
:1005A000746F74756E6500504944204379636C65BF
:1005B000730025532025692F256900204B643A20BC
:1005C00000204B693A2000204B703A200020436CF9
:1005D000617373696320504944200A002054753ABE
:1005E0002000204B753A2000206D61783A200020D1
:1005F0006D696E3A200020643A20002062696173C0
:100600003A200048656174696E672E2E2E002073B3
:10061000746172740A00504944204175746F747596
:100620006E65004175746F74756E65206661696CE6
:100630006564212054656D70657261747572652002
:10064000746F6F20686967682E00206661696C6549
:1006500064212054656D70657261747572652074D3
:100660006F6F20686967680A0050494420417574BB
:100670006F74756E6500504944204175746F7475D0
:100680006E65004572723A207574663820666F6E2A
:1006900074206E6F7420696E697469616C697A6523
:1006A000642E004572723A207574663820666F6E4B
:1006B00074206E6F7420696E697469616C697A6503
:1006C000642E004572723A207574663820666F6E2B
:1006D00074206E6F7420696E697469616C697A65E3
:1006E000642E00200020003A00200020003A003A4A
:1006F000002568753A2530326875002530326875F6
:100700003A25303268750025303268752725303239
:10071000687500256875642025303268753A253083
:100720003268750042656400456E636C6F73757264
:10073000650045002000200020002000200025004A
:100740002020202020202000202020200065727200
:10075000001FE0201020102010102010202010205A
:100760001030300840048003001FE03FF03FF03FAE
:10077000F01FE01FE03FF03FF03FF00FC0078003A5
:10078000003FFFF038007030FC3020FC1020781063
:100790002030102C00D02E31D02F7BD02F7BD02EAC
:1007A00031D02C00D020301020781020FC1030FCEC
:1007B000303800703FFFF03FFFF038007031863076
:1007C0002387102787902F87D02F03D02030102029
:1007D00078102078102030102F03D02F87D0278753
:1007E000902387103186303800703FFFF01FFFF8EC
:1007F0001FFFF804104002082002082004104008DF
:1008000020801041001041000820800410400000AA
:10081000001FFFF81FFFF863616E63656C00507284
:10082000696E742041626F72746564004469736D0F
:100830006973730055492041626F72746564004D9D
:10084000323500526573756D6500554920506175EC
:1008500073650050617573696E672E2E2E00726588
:1008600073756D65004D3234003F0049676E6F72DD
:100870006500526573657400496E697469616C69DD
:100880007A6520454550524F4D004C6F6164206D94
:100890006D00556E6C6F6164206D6D004D333033AB
:1008A00020553120452569205325690050494420B1
:1008B0004175746F74756E65202A004D696E205401
:1008C000726176656C205370656564004D696E20B9
:1008D00056656C6F63697479004D617820402053D0
:1008E00070656564004D6178204520416363656CE7
:1008F000004D6178204020416363656C0054726153
:1009000076656C20416363656C0052657472616347
:100910007420416363656C00416363656C005A2019
:1009200050726F62652057697A6172640050726F0D
:100930006265205A204F66667365740050726F625C
:10094000652059204F66667365740050726F62654A
:100950002058204F6666736574004020737465707C
:10096000732F6D6D00416476616E6365642053651D
:100970007474696E6773003F0043616E63656C0059
:10098000496E6974004D34323800496E697469618A
:100990006C697A6520454550524F4D0046696C613F
:1009A0006D656E740054656D706572617475726505
:1009B0000053746570732F6D6D0050726F62652007
:1009C0004F666673657473004A756E6374696F6E03
:1009D0002044657600416363656C65726174696F7C
:1009E0006E004D617820537065656420286D6D2F11
:1009F00073290053657420486F6D65204F666673D8
:100A000065747300436F6E66696775726174696FB0
:100A10006E0053746F72652053657474696E6773EA
:100A2000004C6F61642053657474696E6773004293
:100A30006564205472616D6D696E67005A20507252
:100A40006F62652057697A6172640050726F6265E7
:100A5000205A204F666673657400466164652048BD
:100A60006569676874004F6666004F6E0042656492
:100A7000204C6576656C696E67004C6576656C2008
:100A8000426564004732394E00473239004175747F
:100A90006F20486F6D65004D6F74696F6E003F0089
:100AA0004E65787420436F726E657200446F6E6598
:100AB000004E657874004732384C3000426564005F
:100AC0004E6F7A7A6C650046616E2053706565647E
:100AD00000436F6E66696775726174696F6E00526C
:100AE0006573746F72652044656661756C7473001C
:100AF0004C6F61642053657474696E67730053743E
:100B00006F72652053657474696E677300536F75F7
:100B10006E640050726568656174202420436F6EB6
:100B200066004F6666004F6E0052756E6F757420DA
:100B300053656E736F72004C434420436F6E747242
:100B40006173740050726F6265205A204F6666733D
:100B5000657400416476616E6365642053657474E6
:100B6000696E6773004D61696E204D656E75004D4D
:100B700037303220542564004D363030204230204A
:100B8000542564004D373032203B2564004D37300A
:100B90003120542564004368616E67652046696CA6
:100BA000616D656E7400507265686561742043758F
:100BB00073746F6D00507265686561742024004223
:100BC00061636B004D363030423000436F6E7469A4
:100BD0006E7565004F6666004F6E0052756E6F75DC
:100BE000742053656E736F72005075726765206D67
:100BF0006F726500524553554D45204F5054494F33
:100C00004E533A005052494E54205041555345449A
:100C1000002F00200020204E6F7A7A6C653A200069
:100C20005061726B696E672E2E2E0000005761694D
:100C30007420666F720066696C616D656E74206306
:100C400068616E676500746F207374617274005719
:100C500061697420666F720066696C616D656E749F
:100C600020756E6C6F616400004E6F7A7A6C65203F
:100C700068656174696E6700506C656173652077A3
:100C80006169742E2E2E0000507265737320627598
:100C900074746F6E00746F2068656174206E6F7A73
:100CA0007A6C650000496E736572742066696C61C8
:100CB0006D656E7400616E6420707265737320627E
:100CC0007574746F6E00746F20636F6E74696E75E7
:100CD00065005761697420666F720066696C616DAA
:100CE000656E74206C6F61640000507265737320D0
:100CF000427574746F6E00746F20726573756D65E4
:100D0000207072696E7400005761697420666F729A
:100D1000207072696E7400746F20726573756D65F2
:100D20002E2E2E00005761697420666F720066696E
:100D30006C616D656E742070757267650000256C5E
:100D4000642E25696D00457874727564656420545D
:100D50006F74616C004C6F6E67657374204A6F62CC
:100D60002054696D65005072696E742054696D6518
:100D700000436F6D706C65746564003A20005072BA
:100D8000696E7420436F756E74003A2000313530FF
:100D90000035004245443A204550434F53203130FE
:100DA000304B0052756E61776179205761746368CA
:100DB0003A204F4E004D61782054656D70003237F7
:100DC00035004D696E2054656D7000350045313A2F
:100DD000204550434F53203130304B005053550085
:100DE00047656E657269630050726F746F636F6CF4
:100DF00000312E30004261756400313135323030BF
:100E000000574545444F203632420042696C696EB6
:100E1000656172204C6576656C696E670045787413
:100E20007275646572730031006D61726C696E6613
:100E3000772E6F726700556C74696D61746532004E
:100E4000323032332D30372D3234006275676669A7
:100E5000782D322E312E78004D61726C696E005003
:100E600072696E746572205374617473005468659E
:100E7000726D6973746F727300426F61726420499E
:100E80006E666F005072696E74657220496E666F8F
:100E9000004D61696E204D656E75003F00426163D3
:100EA0006B0053746F70003F004E4F005945530064
:100EB0004368616E67652046696C616D656E74009C
:100EC0004E6F204D656469610053656C65637420E5
:100ED00066726F6D204D65646961004368616E677D
:100EE00065204D65646961004D32310041626F7566
:100EF00074205072696E74657200436F6E66696724
:100F000075726174696F6E0054656D70657261749D
:100F1000757265004D6F74696F6E00526573756D03
:100F200065205072696E740054756E650053746F5D
:100F300070205072696E7400506175736520507234
:100F4000696E7400496E666F2053637265656E004A
:100F50003F005374617274205072696E7400436173
:100F60006E63656C005072696E740043616E6E6FE3
:100F70007420656E746572207375626469723A20BC
:100F80000002202E2E004D61696E204D656E7500A9
:100F90002100486F74656E6420746F6F20636F6CFE
:100FA00064004261636B0050726F63656564004D5D
:100FB0006F766520457874727564657200473238C3
:100FC0005A004732385900486F6D6520400047325B
:100FD0003858004175746F20486F6D65004D6F740F
:100FE000696F6E0044697361626C6520537465704B
:100FF00070657273004D3834004D34382050726F74
:1010000062652054657374004732384F0A4D343896
:101010002050313000426564204C6576656C696E05
:101020006700486F6D696E67004D61696E204D65A0
:101030006E75004732385A0043616E63656C004438
:101040006F6E65004D6F766520246D6D00302E301B
:101050003235004D6F766520302E316D6D004D6F4D
:10106000766520316D6D0050726F6265205A204F99
:101070006666736574005A004D6F7665204E6F7A10
:101080007A6C6520746F20426564004D6F76696EDE
:101090006720746F2050726F62696E6720506F73A3
:1010A0000050726F62696E67205A205265666572E1
:1010B000656E636500486F6D696E672058595A0008
:1010C000473238005072656865617420242042659B
:1010D000640050726568656174202420456E640068
:1010E00054656D7065726174757265007B0377037A
:1010F000436F6F6C646F776E0050726568656174E2
:1011000020240046616E205370656564004265646A
:10111000004E6F7A7A6C65004D61696E204D656E88
:1011200075004261627973746570205A00000C0F7B
:1011300000FE07022503BB017FFE08FE08FE05082E
:101140000806000040F0C88888987810050808064E
:101150000000C0F88888888888F805050506000121
:101160002030F830200508080600002070F8202004
:101170002020E00509090600FF2070A8A8B888888B
:101180007020070505070001D86C366CD8050909E1
:101190000600FFF8A88888888888A8F8050A0A0643
:1011A00000FE205050505088A8A888700303030602
:1011B000000340A040FFFFFFFFFFFFFFFFFFFFFF17
:1011C000FFFFFFFFFFFFFFFFFFFFFF00000006051F
:1011D000FF010707060200808080808000800303F3
:1011E00003060105A0A0A005060606000050F85061
:1011F00050F8500509090600FF2070A8A07028A823
:101200007020050707060000C8C810204098980500
:10121000070706000040A0A040A89068010303064D
:1012200002058080800309090601FF20404080807C
:10123000804040200309090601FF80404020202013
:1012400040408005070706000020A8702070A820F5
:101250000505050600012020F820200203030601F1
:10126000FFC04080050101060003F80202020601EA
:1012700000C0C0050707060000081010204040808D
:10128000050707060000708898A8C888700307073C
:1012900006010040C040404040E00507070600004E
:1012A000708808102040F8050707060000F80810AD
:1012B0003008887005070706000010305090F810BD
:1012C00010050707060000F880F008088870050779
:1012D00007060000304080F0888870050707060088
:1012E00000F808101020202005070706000070886D
:1012F000887088887005070706000070888878085D
:101300001060020505060100C0C000C0C00206064C
:101310000601FFC0C000C040800305050601012092
:1013200040804020050303060002F800F80305058D
:1013300006010180402040800507070600007088F4
:1013400010202000200507070600007088B8A8B804
:101350008070050707060000708888F8888888056F
:101360000707060000F04848704848F005070706E0
:10137000000070888080808870050707060000F0F4
:101380004848484848F0050707060000F88080F004
:101390008080F8050707060000F88080F0808080D4
:1013A0000507070600007088808098887005070789
:1013B000060000888888F8888888030707060100E7
:1013C000E04040404040E0050707060000381010AC
:1013D000101090600507070600008890A0C0A0903C
:1013E00088050707060000808080808080F8050758
:1013F0000706000088D8A88888888805070706009F
:10140000008888C8A89888880507070600007088A3
:101410008888888870050707060000F08888F080B3
:10142000808005070706000070888888A8906805F6
:101430000707060000F08888F0A0908805070706D7
:10144000000070888070088870050707060000F8A3
:101450002020202020200507070600008888888893
:101460008888700507070600008888888850502003
:1014700005070706000088888888A8A85005070780
:10148000060000888850205088880507070600005D
:1014900088885020202020050707060000F8081043
:1014A000204080F80309090601FFE08080808080E9
:1014B0008080E005070706000080404020101008EB
:1014C0000309090601FFE020202020202020E0055C
:1014D00003030600052050880501010600FEF803FD
:1014E000030306010580402005050506000070087D
:1014F0007888780507070600008080F0888888F0E3
:101500000505050600007080808870050707060045
:101510000008087888888878050505060000708826
:10152000F08070050707060000304840E04040406A
:101530000507070600FE7088888878087005070789
:101540000600008080F0888888880307070601006D
:101550004000C0404040E00409090601FE10003090
:10156000101010109060050707060000808088901A
:10157000E09088030707060100C04040404040E07B
:10158000050505060000D0A8A8A8A80505050600C1
:1015900000B0C8888888050505060000708888881E
:1015A000700507070600FEF0888888F08080050730
:1015B000070600FE78888888780808050505060073
:1015C00000B0C8808080050505060000788070089E
:1015D000F00507070600002020F820202018050548
:1015E00005060000888888986805050506000088BB
:1015F000888850200505050600008888A8A85005A1
:10160000050506000088502050880507070600FEE3
:1016100088888850204080050505060000F81020C5
:1016200040F80309090601FF204040408040404047
:10163000200109090602FF808080808080808080F0
:101640000309090601FF80404040204040408005DA
:10165000030306000248A890FF434F4D4D554E49E5
:10166000434154494F4E0044525952554E00455241
:10167000524F525300494E464F004543484F004594
:1016800072726F722077726974696E6720746F204E
:10169000454550524F4D210A0053544F5050454438
:1016A0002E20005072696E7465722073746F7070B2
:1016B00065642064756520746F206572726F727343
:1016C0002E2046697820746865206572726F7220DA
:1016D000616E6420757365204D39393920746F202F
:1016E000726573746172742E202854656D70657212
:1016F00061747572652069732072657365742E203C
:101700005365742069742061667465722072657314
:1017100074617274696E67290A004E6F20436865B0
:10172000636B73756D2077697468206C696E6520D2
:101730006E756D6265722C204C617374204C696EFD
:10174000653A20004E6F20436865636B73756D20AA
:1017500077697468206C696E65206E756D6265725C
:101760002C204C617374204C696E653A20006368CC
:1017700065636B73756D206D69736D617463682C3F
:10178000204C617374204C696E653A20004C696E80
:1017900065204E756D626572206973206E6F7420CE
:1017A0004C617374204C696E65204E756D62657274
:1017B0002B312C204C617374204C696E653A2000EB
:1017C0004D3131300053657269616C2073746174FE
:1017D0007573206D69736D617463680A00534420EA
:1017E00072656164206572726F720A00746F6F2097
:1017F0006D75636820696E616374697665207469CC
:101800006D65202D2063757272656E7420636F6D37
:101810006D616E643A20002121204B494C4C2063BD
:1018200061757365642062792000627573793A206E
:1018300070617573656420666F7220696E7075746F
:101840000A00627573793A20706175736564206669
:101850006F7220757365720A00627573793A207031
:10186000726F63657373696E670A004D65646961C1
:101870002052656D6F766564004D6564696120492D
:101880006E736572746564004D3630300020666991
:101890006C616D656E745F72756E6F757420006635
:1018A000696C616D656E745F72756E6F75742054CE
:1018B0000046696C616D656E7452756E6F7574204B
:1018C0005400506C656173652052657365740050F7
:1018D00052494E5445522048414C544544002553EA
:1018E0003A20255300706F7765726F6666004B492A
:1018F0004C4C45442E20005072696E74657220680D
:10190000616C7465642E206B696C6C28292063619E
:101910006C6C6564210A00006563686F3A0045726B
:10192000726F723A0042696C696E656172204C6533
:1019300076656C696E6720477269643A0A006E6F5B
:1019400074696669636174696F6E200070726F6D8F
:1019500070745F002F2F616374696F6E3A00626567
:1019600067696E00656E640073686F7700627574F6
:10197000746F6E00486F74656E6420746F6F2063BF
:101980006F6C640A004732362043616E63656C6594
:1019900064004732362048656174696E67204E6F77
:1019A0007A7A6C65004732362048656174696E67E3
:1019B000204265640057616974696E6720666F72C2
:1019C000206865617475702E0A0046697865642028
:1019D0004C656E677468205072696D6500446F6E67
:1019E00065205072696D696E67004D616E75616C3E
:1019F000207072696D696E672E2E2E004C656176BF
:101A0000696E6720473236003F53706563696669C7
:101A1000656420582C5920636F6F7264696E61741D
:101A200065206F7574206F6620626F756E64732E0B
:101A30000A003F28522965706561742076616C75D3
:101A400065206E6F7420706C61757369626C653BA4
:101A5000206D757374206265206174206C656173FC
:101A60007420312E0A003F537065636966696564AE
:101A7000206E6F7A7A6C652074656D706572617422
:101A8000757265206E6F7420706C61757369626C1D
:101A9000652E0A003F537065636966696564206658
:101AA000696C616D656E742073697A65206E6F7400
:101AB00020706C61757369626C652E0A003F53700B
:101AC00065636966696564207072696D65206C651F
:101AD0006E677468206E6F7420706C6175736962D4
:101AE0006C652E0A003F5370656369666965642002
:101AF0006E6F7A7A6C652073697A65206E6F7420D8
:101B0000706C61757369626C652E0A003F52657472
:101B100072616374696F6E204D756C7469706C6965
:101B20006572206D757374206265207370656369DA
:101B3000666965642E0A003F53706563696669656E
:101B4000642052657472616374696F6E204D756CA8
:101B50007469706C696572206E6F7420706C617549
:101B60007369626C652E0A003F537065636966692C
:101B70006564206C617965722068656967687420A6
:101B80006E6F7420706C61757369626C652E0A00EB
:101B900043292E0A003F53706563696669656420B6
:101BA0006265642074656D7065726174757265201C
:101BB0006E6F7420706C61757369626C6520283477
:101BC000302D00473236207374617274696E672E4F
:101BD0002E2E0A004F46460A00466164652048657D
:101BE000696768742000426564204C6576656C699D
:101BF0006E6720004661696C656420746F20656EB5
:101C000061626C6520426564204C6576656C696E26
:101C1000670A00496E76616C6964206D6573682E91
:101C20000A0050726F62696E6720506F696E7400AF
:101C300025532025692F2569002E0A002F00507298
:101C40006F62696E67206D65736820706F696E746E
:101C50002000202844525952554E2900473239203D
:101C60004175746F20426564204C6576656C696EC1
:101C700067003F20284C2C522C462C4229206F759F
:101C800074206F6620626F756E64732E0A003F28A1
:101C900056296572626F7365206C6576656C206984
:101CA0006D706C61757369626C652028302D342904
:101CB0002E0A00426164205A2076616C75650A0024
:101CC0004E6F2062696C696E65617220677269642B
:101CD0000A00446576696174696F6E0025533A2085
:101CE00025730046696E6973686564210A003A20AD
:101CF0007A3A2000206F662000476F696E67207473
:101D00006F3A20580043570A00206469723A002055
:101D1000616E676C653A005374617274207261641D
:101D20006975733A004D343820506F696E74002520
:101D3000533A2025642F256400506F736974696FCE
:101D40006E696E67207468652070726F62652E2EF2
:101D50002E0A003F4C656773206F66206D6F7665B5
:101D60006D656E7420696D706C61757369626C6508
:101D70002028302D3135292E0A003F2028582C5993
:101D800029206F7574206F6620626F756E64732EE4
:101D90000A0050726F6265206F7574206F66206252
:101DA0006F756E6473003F53616D706C652073696D
:101DB0007A65206E6F7420706C61757369626C65F2
:101DC0002028342D3530292E0A004D3438205A2D44
:101DD00050726F6265205265706561746162696CF2
:101DE00069747920546573740A003F285629657216
:101DF000626F7365206C6576656C20696D706C61CF
:101E0000757369626C652028302D34292E0A0053C1
:101E100074616E6461726420446576696174696F8F
:101E20006E3A20002052616E67653A2000204D61B5
:101E3000783A2000204D696E3A2000205369676D82
:101E4000613A20004D65616E3A2000205800202044
:101E50004D61783A2000200020204D696E3A200024
:101E6000203B200020204D3231312053007061751D
:101E700073656400486561642063616E6E6F7420F1
:101E80006265207061726B656400506175736500F6
:101E9000496E736572742066696C616D656E74203D
:101EA000616E6420707265737320627574746F6EF6
:101EB0000A0052656865617420446F6E6500526562
:101EC00068656174696E672E2E2E005265686561C3
:101ED00074004865617465722054696D656F75742E
:101EE00000507265737320627574746F6E20746F26
:101EF0002068656174206E6F7A7A6C650A004E6F97
:101F00007A7A6C65205061726B6564004469736114
:101F1000626C6552756E6F75740050757267654DB1
:101F20006F726500506175736564004C6F61642069
:101F300046696C616D656E74205400496E736572FC
:101F4000742066696C616D656E7420616E642070CA
:101F50007265737320627574746F6E0A00726573B4
:101F6000756D656400526573756D696E6700204913
:101F70006E76616C69642065787472756465722030
:101F800000536C6565702E2E2E005A2050726F62C1
:101F9000652050617374204265640A005A205072B3
:101FA0006F62652050617374204265640047323867
:101FB0004C30005A2050726F62652050617374205B
:101FC00042656400205A3A0020593A004265642074
:101FD000583A004D65736820706F696E74206F7594
:101FE00074206F662072616E67650A0062656769BA
:101FF0006E00436F6E74696E7565004D30205374CA
:102000006F70004D312053746F7000436C69636BC7
:1020100020746F20526573756D652E2E2E004E6FE5
:10202000204D6F76652E00456E642066696C6520D4
:102030006C6973740A00426567696E2066696C6535
:10204000206C6973740A004E6F206D656469610AC3
:1020500000526573756D696E672053440070617539
:10206000736500526573756D650050617573652009
:10207000534400286E6F2066696C652900437572B1
:1020800072656E742066696C653A20004E6F74202C
:102090005344207072696E74696E670A005344205D
:1020A0007072696E74696E67206279746520005081
:1020B00072696E742074696D653A20000A53746108
:1020C00074733A2046696C616D656E742075736532
:1020D000643A20002C204C6F6E67657374206A6F21
:1020E000623A2000546F74616C2074696D653A2007
:1020F0000053746174733A20002C204661696C654A
:10210000643A20002C2046696E69736865643A2041
:10211000005072696E74733A200053746174733A9C
:1021200020006F6B006F6666007A1675166E166774
:1021300016591644454255473A004D313132205325
:10214000687574646F776E004D31313320530055DC
:102150006C74696D61746532204F46462E002020F4
:102160004D39322058002F2F004D31343520533C4B
:10217000696E6465783E206F7574206F66207261A9
:102180006E67652028302D31290A0020204D32301D
:102190003120580020450020204D32303320580097
:1021A00020520020204D323034205000204A0020A0
:1021B000540020530020204D3230352042003F4A49
:1021C000206F7574206F662072616E6765202830FD
:1021D0002E303120746F20302E33290A0020204DFC
:1021E000323036205800250A0046523A0020466C0C
:1021F0006F773A200020440020490020204D3330E2
:102200003120500020204D32353020430064697366
:1022100000656E0043290061626C656420286D6969
:102220006E2074656D702000436F6C642065787457
:1022300072756465732061726520004F4646004FD9
:102240004E00203B20486F73742068616E646C6997
:102250006E67200046696C616D656E742072756EE4
:102260006F757420004D34323120696E636F727265
:1022700065637420706172616D6574657220757339
:102280006167650A004D65736820706F696E742020
:102290006F7574206F662072616E67650A004F6605
:1022A0006673657473204170706C69656400457273
:1022B000723A20546F6F206661722100546F6F2054
:1022C0006661722066726F6D207265666572656EFA
:1022D000636520706F696E740A00454550524F4D1A
:1022E000204F4B0A00203B0020550020204D363067
:1022F00033204C004D383400446F6E652070726995
:102300006E74696E672066696C650A004D37370028
:102310004D3331004361703A00434F4E4649475FA9
:102320004558504F5254004D4541545041434B0085
:10233000434F4F4C45525F54454D504552415455C3
:102340005245004348414D4245525F54454D50452A
:102350005241545552450045505F424142595354F1
:10236000455000424142595354455050494E470050
:1023700041524353004D4F54494F4E5F4D4F4445DA
:102380005300544845524D414C5F50524F544543C1
:1023900054494F4E00455854454E4445445F4D32D4
:1023A0003000435553544F4D5F4649524D574152AB
:1023B000455F55504C4F4144004C464E5F57524983
:1023C0005445004C4F4E475F46494C454E414D45A4
:1023D000004155544F5245504F52545F53445F5340
:1023E00054415455530053445F5752495445005289
:1023F0004550454154004D554C54495F564F4C553E
:102400004D45005344434152440050524F4D5054A7
:102410005F535550504F525400484F53545F4143FF
:1024200054494F4E5F434F4D4D414E445300454D2F
:10243000455247454E43595F504152534552004320
:102440004153455F4C494748545F425249474854BD
:102450004E45535300544F47474C455F4C494748FE
:10246000545300534F4654574152455F504F5745C0
:1024700052004255494C445F50455243454E54002A
:102480004C4556454C494E475F44415441005A5FC4
:1024900050524F42450052554E4F555400415554ED
:1024A0004F4C4556454C005052494E545F4A4F429E
:1024B0000050524F4752455353004155544F5245D7
:1024C000504F52545F54454D50004155544F524562
:1024D000504F52545F504F5300564F4C554D45543A
:1024E00052494300454550524F4D0042494E4152DA
:1024F000595F46494C455F5452414E534645520040
:1025000053455249414C5F584F4E5F584F46460025
:102510004649524D574152455F4E414D453A4D61F6
:10252000726C696E206275676669782D322E312E65
:102530007820284A616E2031322032303234203205
:10254000333A30333A34362920534F555243455F9E
:10255000434F44455F55524C3A6769746875622E23
:10256000636F6D2F4D61726C696E4669726D776134
:1025700072652F4D61726C696E2050524F544F43FB
:102580004F4C5F56455253494F4E3A312E30204DF5
:10259000414348494E455F545950453A556C74691A
:1025A0006D617465322045585452554445525F431D
:1025B0004F554E543A3120555549443A6365646548
:1025C000326132662D343161322D343734382D3951
:1025D0006231322D6335356336326633363766669F
:1025E000004572723A20454550524F4D20436F725C
:1025F00072757074004572723A20454550524F4DC5
:1026000020435243004572723A20454550524F4D87
:102610002053697A65004572723A20454550524F01
:102620004D2056657273696F6E00426162797374F2
:102630006570204000466C6F770046616E205370D5
:1026400065656400426564004E6F7A7A6C6500537C
:1026500070656564004D61696E204D656E75006F33
:1026600070656E00545249474745524544003A2030
:102670000066696C616D656E74007A5F6D696E00ED
:10268000795F6D617800785F6D6178005265706F79
:102690007274696E6720656E6473746F70207374F2
:1026A000617475730A0020746F6F206C6F6E672001
:1026B000657874727573696F6E2070726576656E79
:1026C0007465640A0020636F6C64206578747275A9
:1026D00073696F6E2070726576656E7465640A004A
:1026E000486F6D6520257320466972737400000081
:1026F000484300001643000000005761726E696E87
:10270000673A20486F6D696E672042756D7020448E
:10271000697669736F72203C20310A00020204005E
:102720000048430000164300002A430000A0400078
:1027300000A0400000004000000001000000010077
:10274000008000555555000000400033333300AA87
:10275000AA2A004992240000002000C7711C009999
:10276000991900D1451700555515003BB1130024A8
:1027700049120011111100000010000F0F0F00E3AB
:10278000380E0043790D00CCCC0C00C3300C00E8AF
:10279000A20B0064210B00AAAA0A00703D0A009D4A
:1027A000D80900427B090092240900DCD308008884
:1027B0008808001042080000000800F0C1070087E8
:1027C00087070075500700711C07003EEB0600A14B
:1027D000BC06006990060066660600703E06006151
:1027E00018060017F4050074D105005BB00500B2AF
:1027F000900500627205005555050078390500B84E
:102800001E0500050505004EEC040087D40400A158
:10281000BD040090A7040049920400C17D0400EEAD
:10282000690400C7560400444404005C32040008F4
:1028300021040041100400000004003FF00300F8F0
:10284000E0030026D20300C3C30300CCB503003A63
:10285000A803000A9B0300388E0300C08103009F79
:10286000750300D0690300505E03001D530300345C
:10287000480300913D030033330300162903003859
:102880001F030097150300300C0300030303000B24
:10289000FA020049F10200BAE802005CE002002DF1
:1028A000D802002DD0020059C80200B0C002003189
:1028B000B90200DAB10200AAAA0200A0A30200BC79
:1028C0009C0200FA9502005C8F0200DF8802008201
:1028D000820200457C020027760200277002004336
:1028E0006A02007C640200D05E02003F590200C808
:1028F000530200FFFDFCFAF8F6F4F2F0EEECEAE920
:10290000E7E5E3E1E0DEDCDAD9D7D5D4D2D0CFCD2C
:10291000CBCAC8C7C5C3C2C0BFBDBCBAB9B7B6B4BD
:10292000B3B2B0AFADACAAA9A8A6A5A4A2A1A09E1F
:102930009D9C9A99989795949392908F8E8D8B8A5F
:102940008988878684838281807F7E7D7B7A79787F
:1029500077767574737271706F6E6D6C6B6A69687F
:1029600067666564636261605F5E5D5C5B5A59586F
:10297000585756555453525150504F4E4D4C4B4A48
:102980004A4948474646454443424241403F3E3E0D
:102990003D3C3B3B3A3938383736353534333232C3
:1029A0003130302F2E2E2D2C2B2B2A29292827276A
:1029B00026252524232322212120201F1E1E1D1C05
:1029C0001C1B1B1A19191818171616151514131392
:1029D00012121111100F0F0E0E0D0D0C0C0B0A0A16
:1029E000090908080707060605050404030302028F
:1029F000010000000048430000164300002A430085
:102A000000000000000000000000005365747469BD
:102A10006E67732053746F72656400290A00206228
:102A2000797465733B206372632000536574746925
:102A30006E67732053746F7265642028004552528C
:102A400000204D61726C696E3D563838290A004588
:102A50004550524F4D2076657273696F6E206D69D7
:102A6000736D617463682028454550524F4D3D0099
:102A7000454550524F4D20496E697469616C697AC1
:102A800065640A0048617264636F6465642044652C
:102A90006661756C742053657474696E6773204C3D
:102AA0006F6164656400454550524F4D2064617408
:102AB0006173697A65206572726F722E0A004572C1
:102AC000723A20454550524F4D2043524300202832
:102AD00063616C63756C6174656429210A0020214F
:102AE0003D2000454550524F4D20435243206D69D3
:102AF000736D61746368202D202873746F72656430
:102B0000292000454550524F4D20436F7272757019
:102B1000740A002053697A653A2000496E6465782A
:102B20003A200053746F7265642073657474696E23
:102B300067732072657472696576656400290A009E
:102B40002062797465733B20637263200020737484
:102B50006F7265642073657474696E677320726543
:102B60007472696576656420280000409C450040C9
:102B70009C4500409C4500409C450000BC42000034
:102B8000BC420000C8430000BC42282300002823A8
:102B90000000282300001027000024F4D43050C384
:102BA0008D20C3A24117828B7011127A900D826C16
:102BB000DA0AA861E108C7586607615142061F4B4F
:102BC0005E05C145A6041B411204093D97037239F5
:102BD00031034136DB0266339202D4305302812E38
:102BE0001D02642CEE01762AC501B128A10110272F
:102BF00081018F2564012B244A01E1223401AD219A
:102C000020018D200C01811FFC00851EED00981D08
:102C1000DF00B91CD200E71BC700201BBB00651AF0
:102C2000B200B319A9000A19A0006A189800D217B7
:102C3000920040178A00B616840032167E00B41542
:102C400079003B157400C7146F0058146A00EE1326
:102C500066008813620026135E00C8125B006D12C6
:102C6000570016125500C111510070114E0022116B
:102C70004C00D61049008D10460047104500021048
:102C80004200C00F4000800F3E00420F3C00060F84
:102C90003A00CC0E3900930E37005C0E3500270E3B
:102CA0003400F30D3200C10D3100900D2F00610D85
:102CB0002F00320D2D00050D2C00D90C2A00AF0C71
:102CC0002A00850C28005D0C2800350C27000E0C0E
:102CD0002500E90B2500C40B2400A00B23007D0B6D
:102CE00022005B0B21003A0B2100190B2000F90A8E
:102CF0001F00DA0A1F00BB0A1E009D0A1D00800A81
:102D00001C00640A1C00480A1C002C0A1B00110A43
:102D10001A00F7091A00DD091900C4091900AB09E6
:102D20001800930918007B091700640917004D0962
:102D3000170036091600200915000B091500F608C2
:102D40001500E1081500CC081400B8081400A40808
:102D50001300910813007E0813006B081200590835
:102D6000120047081200350812002308110012084B
:102D7000110001081000F1071100E0071000D00752
:102D80001000C0070F00B1071000A1070F00920745
:102D90000F0083070F0074070E0066070E00580728
:102DA0000E004A070E003C070E002E070D002107FB
:102DB0000D0014070D0007070D00FA060D00ED06C3
:102DC0000C00E1060D00D4060C00C8060C00BC0681
:102DD0000C00B0060B00A5060C0099060B008E0631
:102DE0000B0083060B0078060B006D060B006206D5
:102DF0000B0057060A004D060A0043060B00380672
:102E00000A002E060A00240609001B060A00110605
:102E10000A0007060900FE050A00F4050900EB0593
:102E20000900E2050900D9050900D0050900C70518
:102E30000800BF050900B6050900AD050800A50595
:102E400008009D050800950509008C05080084050B
:102E500008007C050700750508006D05080065057C
:102E600007005E050800560507004F0508004705E6
:102E700007004005070039050700320507002B054C
:102E80000700240507001D050700160507000F05AC
:102E900006000905070002050600FC040700F5040A
:102EA0000600EF040700E8040600E2040600DC0464
:102EB0000600D6040600D0040700C9040500C404B7
:102EC0000600BE040600B8040600B2040600AC0406
:102ED0000600A6040500A10406009B040500960454
:102EE0000600900405008B0406008504050080049C
:102EF00005007B04050076040600700405006B04E1
:102F0000050066040500610405005C040500570423
:102F10000500520405004D04050048040400440463
:102F200005003F0405003A0404003604050031049E
:102F300005002C04040028040500230404001F04D9
:102F400005001A04040016040400120405000D0410
:102F50000400090404000504040001040500FC0346
:102F60000400F8030400F4030400F0030400EC037D
:102F70000400E8030400E4030400E0030400DC03AD
:102F80000400D8030400D4030300D1030400CD03DC
:102F90000400C9030400C503040000000000000091
:102FA0000000000000000000000000000000000021
:102FB0000000D1036D6403570D0347C6023B8B022B
:102FC0003259022B2E0225090221E8011CCC011ADC
:102FD000B201179B011487011374011163010F548F
:102FE000010E46010D39010D2C010B21010A1701BB
:102FF0000A0D0109040108FC0008F40007ED0007B0
:10300000E60007DF0006D90006D30005CE0006C89B
:103010000005C30004BF0005BA0004B60004B200F6
:1030200004AE0004AA0004A60003A300049F00034A
:103030009C00039900039600039300029100038E05
:1030400000028C00038900028700038400028200D2
:10305000028000027E00027C00027A0002780002F8
:103060007600017500027300027100017000026EAB
:1030700000016D00026B00016A0002680001670038
:10308000026500016400016300016200026000014A
:103090005F00015E00015D00015C00015B00015A00
:1030A0000001590001580001570001560001550068
:1030B0000154000153000152000151000051000170
:1030C0005000014F00014E00014D00004D00014C29
:1030D00000014B00014A00004A000149000148007C
:1030E000004800014700014600004600014500007D
:1030F000450001440001430000430001420000423A
:1031000000014100004100014000004000013F007B
:10311000003F00013E00003E00013D00003D000177
:103120003C00003C00013B00003B00013A00003A3B
:103130000001390000390000390001380000380072
:10314000013700003700003700013600003600006C
:103150003600013500003500013400003400003431
:103160000001330000330000330001320000320060
:103170000032000131000031000031000031000157
:103180003000003000003000012F00002F00002F21
:1031900000002F00012E00002E00002E00012D0047
:1031A000002D00002D00002D00012C00002C00003F
:1031B0002C00002C00012B00002B00002B00002B0A
:1031C00000012A00002A00002A00002A00002A002C
:1031D0000129000029000029000029000128000021
:1031E00028000028000028000028000127000027F0
:1031F000000027000027000027000126000026000D
:103200000026000026000026000026000125000000
:1032100025000025000025000025000025000124D0
:1032200000002400002400002400002400002400EA
:1032300001230000230000230000230000230000DE
:1032400023000122000022000022000022000022B0
:1032500000002200002200012100002100002100C6
:1032600000210000210000210000210001200000B9
:10327000200000200000200000200000200000208E
:1032800000002000011F00001F00001F00001F00A1
:10329000001F00001F00001F000020436F756E74A8
:1032A00020583A00004265640045310045006265DF
:1032B00064002C2073797374656D2073746F707063
:1032C000656421204865617465725F49443A200055
:1032D0004572723A204D415854454D50004D415869
:1032E00054454D5020747269676765726564004883
:1032F000656174696E67204661696C656400486544
:103300006174696E67206661696C656400457272FC
:103310003A204D494E54454D50004D494E54454D6F
:10332000502074726967676572656400544845523D
:103330004D414C2052554E415741590054686572D9
:103340006D616C2052756E6177617900202F0020CD
:10335000403A0020573A0020573A00496E76616C97
:1033600069642065787472756465720A007C3C3EFD
:103370005E2B3D3F2F5B5D3B3A2C2A225C007C3C60
:103380003E5E2B3D3F2F5B5D3B3A2C2A225C004387
:10339000616E6E6F74206F70656E20737562646904
:1033A0007220004D6564696120496E697420466130
:1033B000696C0053442063617264206F6B0A006F74
:1033C00070656E526F6F74206661696C65640A0087
:1033D000766F6C756D652E696E6974206661696CB7
:1033E00065640A004E6F20534420636172640A00D2
:1033F000534420636172642072656C656173656417
:103400000A000A4D3234004D3233202573002E0A53
:10341000006F70656E206661696C65642C2046697A
:103420006C653A200046696C652073656C65637451
:1034300065640A002053697A653A200046696C6524
:10344000206F70656E65643A2000454E44205355E8
:1034500042524F5554494E450A002220706F730066
:103460002220706172656E743A2200535542524FA9
:103470005554494E452043414C4C20746172676558
:10348000743A220053756263616C6C204F766572EA
:10349000666C6F77004578636565646564206D616F
:1034A0007820535542524F5554494E45206465701B
:1034B00074683A0057726974696E6720746F206689
:1034C000696C653A2000667265736800646F696EA6
:1034D00067002066696C653A20004E6F7720002FE8
:1034E0006175746F25632E6700FFE0FFD1A4AFFF05
:1034F000D0FFFEFFE0FFD1AEA5FFD0FFFEFFE0FF53
:10350000D11000FFFEFFD0FFE0FFC1FFD1E240A0DD
:10351000C8A6A22FF800238127AC00AFFF64A5FF47
:1035200064FF64A4FFD0FFFE026D61726C696E6679
:10353000772E6F7267006275676669782D322E315B
:103540002E78001FFFFFFFFFFFFF6000000000015B
:10355000FF400000000000FF8000000000007F83AB
:10356000CF00000C303F87FF80000C301F86798031
:10357000000C000F8C30C7838C30E78C30CFC7CC69
:1035800031F38C30DCECEC33B98C30D86C6C331903
:103590008C30D06C0C33198C30D86C0C33198C30C7
:1035A000DC6C0E3B198C30CF7C079F198C30C77CAC
:1035B000038F1940000000000002600000000000BE
:1035C000061FFFFFFFFFFFF82001400130013B0114
:1035D000400136016001310170012C019001270189
:1035E000B0012201C0011D01F001180110021301F8
:1035F00030020E016002090190020401C002FF00C6
:103600000003FA004003F5008003F000D003EB0054
:103610002004E6007004E100E004DC004005D7006F
:10362000C005D2004006CD00D006C8008007C30008
:103630003008BE00F008B900C009B400B00AAF00FD
:10364000B00BAA00D00CA500000EA000500F9B00EC
:10365000C01096005012910000148C00C015870015
:10366000B0178200B0197D00D01B7800001E7300D7
:1036700040206E0090226900F024640040275F0023
:1036800090295A00E02B5500102E500020304B009E
:1036900010324600E033410090353C0010373700CF
:1036A00070383200A0392D00B03A2800A03B23002A
:1036B000603C1E00103D1900903D1400103E0F00AC
:1036C000703E0A00C03E0500003F0000403FFBFF87
:1036D000803FF6FFC03FF1FF2020506C616E6E65A9
:1036E0007242756666657242797465733A2000208D
:1036F00046726565204D656D6F72793A20002043F2
:103700006F6D70696C65643A204A616E20313220B9
:10371000323032340A00204C617374205570646179
:103720007465643A20323032332D30372D323420F4
:103730007C20417574686F723A204A6F6520507220
:10374000696E74732033442053747566660A004DA5
:1037500061726C696E206275676669782D322E31F0
:103760002E780A0020536F66747761726520526567
:103770007365740A00205761746368646F67205230
:10378000657365740A002042726F776E206F7574DE
:103790002052657365740A002045787465726E6105
:1037A0006C2052657365740A00506F7765725570AE
:1037B0000A0073746172740A004732385859004D18
:1037C00031303031006F6B006572726F722077722A
:1037D0006974696E6720746F2066696C650A0044BD
:1037E0006F6E6520736176696E672066696C652E01
:1037F0000A004D323900456E6473746F7073002592
:103800005320256320256320256320256300205A4B
:103810003A0020593A0020583A00656E6473746F7C
:103820007073206869743A200000000A0B02090CCA
:103830000D0E080703040100000000000000000056
:103840000000000000000000000000000000000078
:103850000000000000121110000000000000000035
:103860000000000000000000000000000000004D0B
:103870006F766520246D6D00302E303235004D6F2F
:10388000766520302E316D6D004D6F766520316D7F
:103890006D004D6F76652031306D6D004D6F766532
:1038A0002041786973004D6F7665202A004D6F7650
:1038B00065204000200053656C6563742066726F5C
:1038C0006D204D656469610020002000486F6D69BE
:1038D0006E67204661696C6564000101FF205A3AF9
:1038E000200020593A200042656420583A200050B8
:1038F000726F62696E67204661696C65640A005088
:10390000726F62696E67204661696C656400220AA5
:1039100000556E6B6E6F776E20636F6D6D616E64B8
:103920003A202200DB0FC93F45BCDA3F8FB302408B
:10393000FCF0274056946140FE4B9B4084A5D84044
:10394000E0231841346A5641E859974164DBD54178
:103950006E271742B4B75542CE1A9742C8AED54229
:10396000B5885A43D40684BFA65FA7BF7443E0BF9F
:1039700010B11AC01C2C58C0E8F697C0B849D6C080
:103980004E4E17C124D355C1802497C1A0B5D5C1CF
:10399000121A17C244AE55C2781797C26CACD5C282
:1039A00067885AC320746F6F206C6F6E67206578CC
:1039B00074727573696F6E2070726576656E74656A
:1039C000640A0020636F6C64206578747275736993
:1039D0006F6E2070726576656E7465640A002045AE
:1039E0003A00205A3A0020593A00583A006F6B0AC0
:1039F00000526573656E643A2000000022002500C5
:103A000028002B002E0031003400020100000501C7
:103A100008010B0100002100240027002A002D00CE
:103A20003000330001010000040107010A0105050F
:103A30000505070508080808020202020A0A080824
:103A40000404040401010101010101010303030352
:103A500003030303040707070C0C0C0C0C0C0C0CE1
:103A60000202020206060606060606060B0B0B0BF2
:103A70000B0B0B0B01021020200808102040102017
:103A80004080020102010804020101020408102022
:103A90004080804020100804020180040201804020
:103AA0002010080402010804020101020408102089
:103AB00040800102040810204080556C74696D61DB
:103AC0007465322052656164792E005072696E749B
:103AD000696E672E2E2E005072696E7420506175CB
:103AE00073656400EA00EC0011241FBECFEFD1E241
:103AF000DEBFCDBF00E00CBF84B78093D61614BEE6
:103B00000FB6F894A895809160008861809360005A
:103B1000109260000FBE13E0A0E0B2E0EAE4F6E924
:103B200002E00BBF02C007900D92A03FB107D9F78A
:103B300026E1A0EFB3E001C01D92A63DB207E1F778
:103B40001DE1C3E7DDE100E006C021970109802FF8
:103B5000FE010F949C46C237D10780E00807A9F701
:103B60000F943B320D94144B0C94000060914A0268
:103B700070914B02072E000C880B990B0F94E73FB6
:103B80002AE037ED43E25CE30F944640609369021C
:103B900070936A0280936B0290936C0208958091F7
:103BA000AC08811104C0809197088093DD080895C6
:103BB000809153168823F1F02FEF3FEF309354029A
:103BC00020935302815080935316EDE6FEE0882344
:103BD00051F08150990B2BE1289FF001299FF00DA6
:103BE0001124EB5BFA4E8BE1A2E5BEE001900D9251
:103BF0008A95E1F720915316211105C080915E1638
:103C0000806480935E1681E090E0A0E0B0E0211136
:103C100003C080E090E0DC0180938F0890939008CF
:103C2000A0939108B09392081092940881E0809339
:103C3000890883E080936802089581E080930304FB
:103C4000089582E0809303040895FC014083089561
:103C5000CF93DF93EC01642F70E090E080E00F944D
:103C6000E73F29EC38EC48EC5EE30F943D4720E059
:103C700030E040E05FE30F94C3460F94AA476883A7
:103C8000DF91CF9108950C94262EE091AC0886E048
:103C9000E802F0011124E458F74F8091970890E072
:103CA000958384830895CF93DF93EC01CB01BA0110
:103CB0000F94E73F688379838A839B83DF91CF9159
:103CC0000895CF93DF93EC01CB01BA010F94E73F46
:103CD000688379838A839B83DF91CF910895CF9303
:103CE000DF93EC01CB01BA010F94E73F20E030E015
:103CF0004AE754E40F943D4727E137EB41ED58E3A1
:103D00000F94C346688379838A839B83DF91CF9125
:103D10000895CF93DF93EC01CB01BA010F94E73FF5
:103D200020E030E048EC52E40F943D472FE632E1CA
:103D300043E85AE30F94C346688379838A839B835D
:103D4000DF91CF910895CF93DF93EC01CB01BA01BE
:103D50000F94E73F20E030E048EC52E40F943D47F9
:103D60002FE632E143E85AE30F94C3466883798330
:103D70008A839B83DF91CF910895CF93DF93EC01EA
:103D8000CB01BA010F94E73F20E030E040E251E47C
:103D90000F943D472AE037ED43E25CE30F94C346BE
:103DA000688379838A839B83DF91CF910895CF9332
:103DB000DF93EC01CB01BA010F94E53F2AE037ED28
:103DC00043E25DE30F943D470F94AA4768837983EC
:103DD0008A839B83DF91CF910895CF93DF93EC018A
:103DE000CB01BA010F94E73F2AE037ED43E25DE3F0
:103DF0000F943D47688379838A839B83DF91CF91BA
:103E00000895CF93DF93EC01CB01BA010F94E73F04
:103E1000688379838A839B83DF91CF910895FC0126
:103E2000518340830895FC01A081B1811C92A2813D
:103E3000B3818C918F5F8C930280F381E02D908110
:103E40008CE0989F800D1124E6E0F5E113AE84AF7D
:103E5000089590E080E00895CF93DF93C0917908B2
:103E6000D0917A0881E0CE31D105E4F020E030E055
:103E700040E05FE360917508709176088091770863
:103E8000909178080F94C3460F94A5476C1B7D0B47
:103E900077FF03C071956195710981E06330710509
:103EA0000CF080E0DF91CF910895CF92DF92EF92F6
:103EB000FF926B017C0120E030E0A9010F94E13F0B
:103EC00087FD3EC06DEB77E386E095E3A7019601A1
:103ED0000F94C34641E050E00E9494E79B018BE2BF
:103EE00037FF05C022273327261B370B8DE280932F
:103EF0009E08C90164E670E00F948946CB01EAE0B0
:103F0000F0E0BF010F948946805D80939F08C9014E
:103F1000BF010F948946282FCB01BF010F9489461A
:103F2000805D8093A0088EE28093A108205D20939D
:103F3000A2088EE998E0FF90EF90DF90CF9008956F
:103F40006DEB77E386E095EBC1CF0F94E73F20E080
:103F500030E040E251E40F943D472AE037ED43E280
:103F60005CE30F94C346A1CF8F929F92AF92BF9212
:103F7000CF92DF92EF92FF92CF936B017C0120E012
:103F800030E0A9010F94E13F87FDC3C06DEB77E3FB
:103F900086E095E3A70196010F94C3466B017C016F
:103FA00020E030E0A9010F94E13F87FF04C0F7FA59
:103FB000F094F7F8F09442E050E0C701B6010E9497
:103FC00094E76B017C0160E280E4C81682E4D806C5
:103FD0008FE0E806F1048CF0C701B60120E432E47A
:103FE0004FE050E00F942D46CA01B9012AE030E0BD
:103FF00040E050E00F942D46605D60939B0860E2C6
:1040000080EAC81686E8D80681E0E806F1048CF05C
:10401000C701B60120EA36E841E050E00F942D4692
:10402000CA01B9012AE030E040E050E00F942D468B
:10403000605D60939C0860E280E1C81687E2D80664
:10404000E104F1048CF0C701B60120E137E240E061
:1040500050E00F942D46CA01B9012AE030E040E05B
:1040600050E00F942D46605D60939D0860E288EEFD
:10407000C81683E0D806E104F1048CF0C701B6014C
:1040800028EE33E040E050E00F942D46CA01B9011C
:104090002AE030E040E050E00F942D46605D6093F0
:1040A0009E08C701B60124E630E040E050E00F94DE
:1040B0002D468AE0882E912CA12CB12CCA01B90181
:1040C000A50194010F942D46605D60939F088EE2D8
:1040D0008093A008C701B601A50194010F942D4655
:1040E000C62FCA01B901A50194010F942D46605D48
:1040F0006093A108C05DC093A2088BE998E0CF91BE
:10410000FF90EF90DF90CF90BF90AF909F908F90F7
:1041100008956DEB77E386E095EB3CCF0F94E73F96
:1041200020E030E048EC52E40F943D472FE632E1C6
:1041300043E85AE30F94C34617CF0C94A3EECF93F2
:10414000DF93CDB7DEB720E2488559856F818E8138
:104150000F94C724DF91CF91089570E090E080E044
:104160000F94E73F29EC38EC48EC5EE30F943D47B1
:1041700020E030E040E05FE30F94C3460F94AA478D
:10418000862F0C9460E7CF92DF92EF92FF920F940C
:10419000E73F6B017C0120E030E0A9010F94E13F93
:1041A0002DEB37E346E055E387FF04C02DEB37E303
:1041B00046E055EBC701B6010F94C3466B017C0185
:1041C00020E030E0A9010F94E13F20E030E040E042
:1041D0005FE387FF04C020E030E040E05FEBC70111
:1041E000B6010F94C3460F94A547CB01FF90EF9003
:1041F000DF90CF900C9403E7CB010C9403E7609120
:1042000097088FEF0D94D13080919708682F0D9407
:10421000D1306FEF809197080D94D13090915F0667
:1042200081E089270C940879CF92DF92EF92FF9278
:10423000CF93DF9300D01F92CDB7DEB76B017C0127
:1042400020E030E0A9010F94E13F87FD1BC06DEB3A
:1042500077E386E095E3A70196010F94C34669834F
:104260007A838B839C83CE0101960E9491E80F9004
:104270000F900F900F90DF91CF91FF90EF90DF9014
:10428000CF9008956DEB77E386E095EBE4CF0F9444
:10429000E73F20E030E048EC52E40F943D472FE642
:1042A00032E143E85AE30F94C346BECF66E274E4BA
:1042B00082E00D94412F68E274E481E00D94412F77
:1042C0006AE274E480E00D94412F62E072E483E0DE
:1042D0000D94412FCF93DF93C0910004D09101043E
:1042E000DF77209759F580915E1683FD2BC00E94E1
:1042F000317D882319F18091561690915716A0911F
:104300005816B09159160097A105B105B9F0BC0136
:10431000CD01615F784D8F4F9F4F20E137E240E044
:1043200050E00F940B4660915A1670915B16809185
:104330005C1690915D160F940B46E901CE01DF915A
:10434000CF910895C0E1D7E2F9CF862F0C9437E7DB
:104350000C944078CF93DF9300D000D01F921F922F
:10436000CDB7DEB788E0E1E8F2E0DE01119601901A
:104370000D928A95E1F7E0919505EE0FFF0BED5256
:10438000FD4F808191818330910509F445C08430CF
:10439000910509F44BC0029741F480E090E0AAE255
:1043A000B3E489839A83AB83BC8380E090E0A0E888
:1043B000B0E48093750290937602A0937702B09355
:1043C000780283EE92E00E9453DF2BEB32E045E768
:1043D00052E0BE016B5F7F4FCE0101960E946CDF01
:1043E0001092750210927602109277021092780263
:1043F00083EE92E00E9453DF809195058F5F8430B9
:10440000F4F48093950528960FB6F894DEBF0FBE9E
:10441000CDBFDF91CF91089588E0EBECF2E0DE01B3
:10442000119601900D928A95E1F7BFCF80E090E060
:10443000A0EFB2E48D839E83AF83B887B6CF10928E
:104440009505E1CF61E087E998E00C943679CF9348
:10445000DF9300D01F92CDB7DEB70F94E53F69839D
:104460007A838B839C83CE0101960E94E2E70F90B2
:104470000F900F900F90DF91CF9108950F94E53F2B
:104480002AE037ED43E25DE30F943D470F94AA47DE
:10449000DECFCF92DF92EF92FF92CF93DF9300D0E7
:1044A0001F92CDB7DEB76B017C0120E030E0A9019F
:1044B0000F94E13F87FD1BC06DEB77E386E095E34A
:1044C000A70196010F94C34669837A838B839C83EB
:1044D000CE0101960E94E2E70F900F900F900F908F
:1044E000DF91CF91FF90EF90DF90CF9008956DEB2B
:1044F00077E386E095EBE4CF0F94E73F2AE037EDD2
:1045000043E25DE30F943D47C4CF0F94E73FC1CF33
:10451000CF92DF92EF92FF926B017C0120E030E0BE
:10452000A9010F94E13F87FD26C06DEB77E386E09C
:1045300095E3A70196010F94C3466B017C0120E02F
:1045400030E0A9010F94E13F20E030E040E05FE37C
:1045500087FF04C020E030E040E05FEBC701B60118
:104560000F94C3460F94A547CB01FF90EF90DF90C7
:10457000CF900C9459E66DEB77E386E095EBD9CFBD
:104580000F94E73FC5CFCF92DF92EF92FF92CF9388
:10459000DF9300D01F92CDB7DEB70F94E73F20E046
:1045A00030E04AE754E40F943D4727E137EB41ED13
:1045B00058E30F94C3466B017C0120E030E0A90171
:1045C0000F94E13F2DEB37E346E055E387FF04C04E
:1045D0002DEB37E346E055EBC701B6010F94C34618
:1045E00069837A838B839C83CE0101960F94D225B5
:1045F0000F900F900F900F90DF91CF91FF90EF9061
:10460000DF90CF9008950C9435D00C9435D00C9455
:10461000E7CF0C94E7CF0C94E7CF0C94E7CF0F943F
:10462000AB190E943F7D882331F085E698E0909396
:104630002F0880932E0861E08EE598E00E94AF8DF0
:104640000C940EE6CF92DF92EF92FF92CF93C82F99
:104650000F9428296B017C0124EA30E74DE75FE3E2
:1046600060911302709114028091150290911602CC
:104670000F94E13F87FD18C08AEF90E0A0E0B0E022
:104680008C0D9D1DAE1DBF1D809336059093370583
:10469000A0933805B0933905C0930F02CF91FF90D6
:1046A000EF90DF90CF90089580E090E0DC01E8CFBC
:1046B000CF92DF92EF92FF920F931F930F942829CE
:1046C00000910C0510910D0520910E0530910F05FC
:1046D0006B017C01C01AD10AE20AF30A9701860134
:1046E00037FD11C020910B05209520930B056A54CE
:1046F0007C4F8F4F9F4F60930C0570930D058093F7
:104700000E0590930F0581E090910B05911101C06A
:1047100080E01F910F91FF90EF90DF90CF90089570
:10472000EF92FF920F931F93CF93DF93EC018B01D6
:104730007A018A859B858617970731F08881998150
:104740000F94702C1B870A87B701888199810F9479
:1047500092252E813F81820F932F911D9F838E83FF
:1047600090E080E0DF91CF911F910F91FF90EF904B
:1047700008959F92AF92BF92CF92DF92EF92FF92F5
:104780000F931F93CF93DF93EC018B01942EA52EF3
:104790008A859B858617970731F0888199810F94C8
:1047A000702C1B870A8788859985019649F5BC80FE
:1047B0000A818E81080FC880D980D6015596ED9167
:1047C000FC91C6011995B80EE92CFA2C10E0F701FE
:1047D00021917F01211127C08E819F81810F911D21
:1047E0009F838E8390E080E0DF91CF911F910F91A6
:1047F000FF90EF90DF90CF90BF90AF909F90089583
:104800000E811F81692D7A2D888199810F949225BF
:10481000800F912F911D288539852817390738F683
:1048200081E090E0E1CF4B2D602FC6010F94C82CA2
:10483000080F180FCCCFDF92EF92FF920F931F93C8
:10484000CF93DF93EC01D62E1CAD0BAD7C0184E041
:10485000E80EF11CE98DFA8DC7011995412F480F1B
:104860002D2D602FC7010F94C82C9BAD890F8BAFE6
:1048700081E090E0DF91CF911F910F91FF90EF9039
:10488000DF900895CF92DF92EF92FF920E944FE562
:104890006B017C011FDDFC0120E030E0A9010097E5
:1048A00069F0A0E1B7E2A81BB90BA70196010F942C
:1048B00049469F0150E040E00F940B46CA01B90100
:1048C000FF90EF90DF90CF900895CF93DF93C0914A
:1048D0002105D09122052097D9F04CE050E060E20C
:1048E00070E083E195E00F94784ACE0164E670E0D1
:1048F0000F947546862F0E9437E7FC0193E0A7E1ED
:10490000B5E001900D929A95E1F785E280931A0542
:10491000DF91CF9108952F923F924F925F926F92C5
:104920007F928F929F92AF92BF92CF92DF92EF923F
:10493000FF920F931F93CF93DF93CDB7DEB72D97E1
:104940000FB6F894DEBF0FBECDBF8C01F62E45E04A
:1049500050E060E270E085E195E00F94784AF092D3
:1049600013058AE380931405F80180809180A2806A
:10497000B380C501B40120E13EE040E050E00F9477
:104980000B46D22EC32E022F132F8CE3282E312C50
:10499000412C512CC501B401A20191010F940B4689
:1049A000762E672ECA01B901A20191010F940B4620
:1049B0009E012F5F3F4F790130E8831631E5930662
:1049C00031E0A306B10408F447C07F936F93C80198
:1049D00068E170E00F9475469F938F93C501B40111
:1049E00020E831E541E050E00F940B463F932F93D0
:1049F00083E197E09F938F93FF92EF920F947A3F1A
:104A0000C7010F94F43E0FB6F894DEBF0FBECDBFC2
:104A10002CE030E0A901481B5109CA01B7018D5EA5
:104A20009A4F0F949D4A2D960FB6F894DEBF0FBE95
:104A3000CDBFDF91CF911F910F91FF90EF90DF904D
:104A4000CF90BF90AF909F908F907F906F905F902E
:104A50004F903F902F9008950115110599F46F9292
:104A60007F927F936F9387E097E09F938F93FF925E
:104A7000EF920F947A3F0FB6F894DEBF0FBECDBF12
:104A800085E0C6CF0436110538F47F936F93CF923B
:104A9000DF928BEF96E0E9CF7F936F93CF92DF9217
:104AA00081EF96E09F938F93FF92EF920F947A3F5E
:104AB0000FB6F894DEBF0FBECDBF86E0A9CFCF936F
:104AC000DF9300D01F92CDB7DEB70E940D7D882303
:104AD00051F00E944FE569837A838B839C8365E460
:104AE000CE01019618DF0F900F900F900F90DF917D
:104AF000CF910895CF93DF9300D01F92CDB7DEB74B
:104B00000E940D7D8823D9F06091F6037091F70320
:104B10008091F8039091F903611571058105910564
:104B200031F4B0DE672B682B692B49F0ABDE69836B
:104B30007A838B839C8362E5CE010196ECDE0F9035
:104B40000F900F900F90DF91CF910895CF92DF9249
:104B5000EF92FF920F931F93CF93DF93CDB7DEB702
:104B60002C970FB6F894DEBF0FBECDBFF090411565
:104B7000E090421520910A0521111DC043EA56E03C
:104B80006E2D8F2D0F94332D90E080E0F80EF09273
:104B90004115E092421599272C960FB6F894DEBF86
:104BA0000FBECDBFDF91CF911F910F91FF90EF907E
:104BB000DF90CF900895C0900E15D0900F152AE089
:104BC00035E13A8329832F2D30E03C832B832E2D32
:104BD00030E03E832D8318861F827A8769871C8682
:104BE0001B8609EB13E29E012F5F3F4F44E458EB15
:104BF000BC01C6010F942919B6018AE095E10F9412
:104C0000702C8F819885C2CF843021E0920714F0F8
:104C100084E091E09093A30E8093A20E0C94A3EEF7
:104C20008091970890919808EFCFEF92FF920F93A1
:104C30001F93CF93DF9300D000D000D01F921F921C
:104C4000CDB7DEB77C0120919605422F022E000CD5
:104C5000550B80919705833091F1843049F188E7B5
:104C60009BE05F932F939F938F938E010F5F1F4F56
:104C70001F930F930F947A3FC701C6DF4FE350E0B5
:104C8000B80180E398E00F94CA4A0F900F900F90FC
:104C90000F900F900F902B960FB6F894DEBF0FBEBB
:104CA000CDBFDF91CF911F910F91FF90EF900895AD
:104CB00084E89BE027FDD5CF8FE69BE0D2CF8DE83F
:104CC0009BE0CFCFE091AC0886E0E802F001112430
:104CD000E458F74F80819181A8CF8091A20E9091E6
:104CE000A30EA3CF282F1092A80880918F0890912F
:104CF0009008A0919108B0919208B7FF08C0109257
:104D00008F0810929008109291081092920880914A
:104D10009B05882331F080918F088093930810922F
:104D20008908809188081816FCF4082E000C990B4D
:104D3000821B910920919308022E000C330B281737
:104D4000390794F097FF02C090E080E080939308C9
:104D5000092E000CAA0BBB0B80938F089093900830
:104D6000A0939108B0939208809193086623A9F0CC
:104D700090919408891714F48093940820919408D2
:104D8000022E000C330B2C5F3F4F482F082E000CD7
:104D9000550B241735071CF484508093940808950C
:104DA0000F931F93522F209104153091051528174A
:104DB000390781F11092050420910004309101041B
:104DC00037FF04C01092010410920004909305155F
:104DD000809304158B0130E020E000938F0810933E
:104DE0009008209391083093920840939408509330
:104DF00088088C519B4321F4109206041092890577
:104E000082E08093680281E080938908109298057F
:104E1000109294051F910F91089520E040E070E0FA
:104E200060E08CE391E4BCDF81E0809306041092A3
:104E3000B7081092B608089581E080930604109296
:104E4000B20810924A06E8ECFEE080859185A285C2
:104E5000B38580939E0590939F05A093A005B09382
:104E6000A105108611861286138680915F068093B5
:104E70009D0580E00E94087980EC90E190932F08D6
:104E800080932E0820E040E070E060E08FEB97E335
:104E900087CF20E040E070E060E085E691E280CFDF
:104EA0000E94E3CF882339F020E040E070E060E02A
:104EB00083ED90E375CFEDCFCF93C1E0C0930604AF
:104EC000FC0180819181A281B38180931302909330
:104ED0001402A0931502B093160220E040E070E0A7
:104EE00060E080919508909196085ADFC093050480
:104EF000CF910895CF93DF9300D01F92CDB7DEB747
:104F00008DEC9CECACECBCE389839A83AB83BC83D3
:104F1000CE010196D1DF0F900F900F900F90DF918F
:104F2000CF910895CF93DF9300D01F92CDB7DEB716
:104F30008DEC9CECACECBDE389839A83AB83BC83A2
:104F4000CE010196B9DF0F900F900F900F90DF9177
:104F5000CF910895CF93DF9300D01F92CDB7DEB7E6
:104F600080E090E0A0E8BFE389839A83AB83BC83B1
:104F7000CE010196A1DF0F900F900F900F90DF915F
:104F8000CF910895CF93DF9300D01F92CDB7DEB7B6
:104F900080E090E0A0E2B1E489839A83AB83BC8394
:104FA000CE01019689DF0F900F900F900F90DF9147
:104FB000CF910895FC0180819181A281B38180937A
:104FC000130290931402A0931502B093160220E0EE
:104FD00040E070E060E084E294E4E2CECF93DF93BF
:104FE00000D01F92CDB7DEB78DEC9CECACECBCE3EF
:104FF00089839A83AB83BC83CE010196DBDF0F905C
:105000000F900F900F90DF91CF910895CF93DF9382
:1050100000D01F92CDB7DEB78DEC9CECACECBDE3BD
:1050200089839A83AB83BC83CE010196C3DF0F9043
:105030000F900F900F90DF91CF910895CF93DF9352
:1050400000D01F92CDB7DEB780E090E0A0E8BFE3CC
:1050500089839A83AB83BC83CE010196ABDF0F902B
:105060000F900F900F90DF91CF9108958091A20E35
:105070009091A30E0E94ED78811107C084EC9BE013
:1050800090932F0880932E08089520E040E070E070
:1050900060E086EB96E484CE81E080930604109273
:1050A000B20810924A0686EB9AE090932F088093FC
:1050B0002E0820E040E070E060E086EA97E370CEE2
:1050C00080914A0687708730A1F480915F068093B3
:1050D0009D0580E00E9408791092950520E040E04F
:1050E00070E060E083E591E35BDE81E0809394050E
:1050F00031C9089520E040E070E060E08CE19BE37E
:105100004FCE1092DD080E9400CAF4CF81EC9DE0E2
:105110000E94A4BCEFDF0D94AB191092FF03109214
:1051200060020E94317D90915E1680FB97F990930A
:105130005E1661E087E198E00E94AF8D0E94627D7B
:105140004CE258E064E378E085E00F942B208EE198
:1051500098E00F94B61CCECF611160931202409379
:105160000404EFEFE80FEB3008F035C00E2E000C12
:10517000FF0B8827E154F74D8F4F0D949C46EC2888
:10518000EF28CA28D428D728DA28E628DD28EB28F3
:10519000E028E32884E09BE321E02093060420E05C
:1051A00040E070E060E0FCCD8AE09BE3F5CF8DE06D
:1051B0009BE3F2CF80E19BE3EFCF83E19BE3ECCF76
:1051C00086E19BE3E9CF89E19BE3E6CF10920304FC
:1051D00084EB95E4E1CF8ECF81E09BE3DDCF87E0E8
:1051E0009BE3DACF85E899E090932F0880932E080F
:1051F00081CF0F931F93CF93DF93CDB7DEB76E9719
:105200000FB6F894DEBF0FBECDBF8091AC08282F3B
:10521000082E000C330BF901EE0FFF1FE05FFD4F6E
:1052200091819F9390819F933F938F938CE998E016
:105230009F938F938E010F5F1F4F1F930F930F94B8
:105240007A3F4FE350E0B80180E398E00F94CA4AF8
:1052500051DF0FB6F894DEBF0FBECDBF6E960FB60E
:10526000F894DEBF0FBECDBFDF91CF911F910F919C
:105270000895CF93DF93C0918905CC23B1F0C1503D
:10528000C093890589E0C89FE0011124CC5BDA4F07
:105290006A817B812F814E818881998181DD88851A
:1052A00080930604DF91CF910895DF91CF9122CFB3
:1052B0004F925F926F927F928F929F92AF92BF9226
:1052C000CF92DF92EF92FF920F931F93CF93DF93D2
:1052D0000091970861E081E005DDC091940810E03D
:1052E000000F111F04511F4E95E0592E5C0E24EC47
:1052F000E22E20E1F22ED3E0DC1B39E0C32E31E2B6
:10530000D32E42EDA42E40E1B42E82E0782E7C1AFA
:1053100059EF852E50E1952E81E0682E6C1A4C2EA7
:105320004194C11136C0809193088823B1F08091D7
:105330006802882359F081E090919308911180E0F0
:1053400024E040EE50E1642D0F94C724CF5FC511D7
:10535000E8CF84E0809388080BC080918A0810927F
:105360008A08882321F385DF809189088823F9F250
:10537000DF91CF911F910F91FF90EF90DF90CF9031
:10538000BF90AF909F908F907F906F905F904F9065
:105390000895C13089F5F801859194911092AC0877
:1053A0009093B0088093AF081092AE081092AD08A9
:1053B00080919308813081F080916802882331F2D6
:1053C0001F929F928F926F9281E0909193089130FB
:1053D00009F480C080E07EC080918A0810928A081B
:1053E000882351F380919708682F0F94D1308091D2
:1053F0008908882309F3BCCFC23009F048C0F801FE
:10540000859194911092AC089093B0088093AF0866
:105410001092AE081092AD08809193088230D1F0BE
:1054200080916802882309F491CFDF92CF92BF92D6
:10543000AF927F9281E090919308923009F080E0E2
:105440008F930E949F200F900F900F900F900F90BE
:105450000F907CCF80918A0810928A08882301F3EC
:105460000E940921809189088823D1F281CF8091FF
:105470008A0810928A088823F1F0609197088FEFCC
:105480000F94D130809189088823A9F071CFC3305F
:1054900009F05CCFF801859194911092AC0890933B
:1054A000B0088093AF081092AE081092AD088091BA
:1054B00093088330E1F280916802882309F446CF93
:1054C0001F92FF92EF92DF9381E0909193089330C7
:1054D00009F080CF8F930E949F200F900F900F9024
:1054E0000F900F9033CF3F924F925F926F927F92C7
:1054F0008F929F92AF92BF92CF92DF92EF92FF92E4
:105500000F931F93CF93DF9361E081E0EBDBC091BA
:10551000940885E0682E6C0E02E09DEBE92E9FE07A
:10552000F92ED4E0DC1B7724739422ECC22E2FE0FA
:10553000D22E13E01C1B3EECA32E3FE0B32E502EC8
:105540005C1A40EC842E40E1942E472C4C1A3C2EE1
:105550003194C11137C0809193088823B1F08091B4
:105560006802882359F081E090919308911180E0BE
:1055700024E04DED5FE0632D0F94C724CF5FC6118B
:10558000E8CF85E0809388080BC080918A0810924C
:105590008A08882321F36DDE809189088823F9F237
:1055A000DF91CF911F910F91FF90EF90DF90CF90FF
:1055B000BF90AF909F908F907F906F905F904F9033
:1055C0003F900895C13001F590919308913069F0B2
:1055D00080916802882391F281E0913009F080E0A7
:1055E00020E243ED5FE0642DC7CF80918A081092DE
:1055F0008A08882369F390922F0880922E08809160
:105600008908882329F3CCCFC23009F065C01092F5
:10561000AC081092B0081092AF081092AE08109229
:10562000AD0890919308923071F0809168028823C0
:1056300009F4A4CF81E0923009F080E020E247EC49
:105640005FE0652D99CF80918A0810928A0888239F
:1056500061F3B0922F08A0922E08809189088823C8
:1056600021F39ECF7092AC081092B0081092AF0850
:105670001092AE081092AD0890919308933071F09B
:1056800080916802882309F479CF81E0933009F092
:1056900080E020E247EC5FE0612F6ECF80918A08C6
:1056A00010928A08882361F3D0922F08C0922E08A6
:1056B00080918908882321F373CF80918A08109202
:1056C0008A088823E1F0F0922F08E0922E0880915A
:1056D00089088823A1F064CFC33021F2C43009F0D7
:1056E0004DCF0093AC081092B0081092AF08109202
:1056F000AE081092AD08909193089430F1F2809129
:105700006802882309F43ACF81E0943009F080E000
:1057100020E247EC5FE06D2F2FCF10920604A9CD59
:10572000FC0180819181A281B3818093D00E9093FE
:10573000D10EA093D20EB093D30E1092310280916D
:105740009D050E940879E9CFCF93DF9300D01F9287
:10575000CDB7DEB786EA95E0E3DF8091A2059091B0
:10576000A305A091A405B091A5058093750290931F
:105770007602A0937702B09378020E9400E180E065
:1057800090E0A0EAB0E489839A83AB83BC8361E0B4
:10579000CE0101960F9441200F900F900F900F9023
:1057A000DF91CF910895D0CF8EE995E0B9DF809158
:1057B000B2088B7F8093B20880914A068B7F8093DA
:1057C0004A0683E390E190932F0880932E08089572
:1057D00080E090E0A0E8B0E48093750290937602B8
:1057E000A0937702B093780283EE92E00E9453DF99
:1057F00080919D050E94087990CFE0918905E6305F
:1058000028F581E08E0F8093890540918F08509193
:10581000900860919108709192082091940890915D
:1058200088088091060439E0E39FF0011124EC5BC5
:10583000FA4FA0910415B0910515B183A08342835E
:10584000538364837583268397838087089520918B
:105850008C05211107C090938B0580938A0581E008
:1058600080938C05CADF20E040E070E060E089EBC7
:1058700099E396DA81E0809306040E9458D04DCFD8
:1058800083E598E0E4DF81E08093060443E458E098
:105890006AE478E084E00F942B2087ED9AE30F947C
:1058A000B61C8FE398E090932F0880932E080895FC
:1058B0002F923F924F925F926F927F928F929F9220
:1058C000AF92BF92CF92DF92EF92FF920F931F930E
:1058D000CF93DF9300D000D0CDB7DEB71C017A8321
:1058E00069832B833C834D835E832701380181E0EC
:1058F0008093890882DF83E0809368023092880574
:105900002092870589819A819093860580938505E9
:105910008B819C81AD81BE818093810590938205AE
:10592000A0938305B093840540927D0550927E0537
:1059300060927F0570928005A0928F08B0929008C7
:10594000C0929108D0929208909205158092041509
:105950008C8D9D8D90937C0580937B058E8D80939F
:105960007A0526960FB6F894DEBF0FBECDBFDF9145
:10597000CF911F910F91FF90EF90DF90CF90BF904C
:10598000AF909F908F907F906F905F904F903F90DF
:105990002F90089563E972E084E690E00F949405F7
:1059A00070E060E08AE090E00F9494056AEB72E0AA
:1059B00084E690E00D9494050E944BE2EBCF8111B8
:1059C000E9CF68E270E080E991E00D9494050E94CF
:1059D00003CCF5CF0E9452FCF2CF0E944BE20E9412
:1059E00003CCEDDF87CBCF93DF93CDB7DEB78E81CE
:1059F00087FF03C01092140E80E09091140E282FA0
:105A0000082E000C330B9217130609F09CF48093B8
:105A1000140E9E01275F3F4F4F81588564E570E06B
:105A20008FEA94E10F94A93F1092130E1092120E78
:105A30001092110EDF91CF910895CF93DF93CDB7E0
:105A4000DEB7A1970FB6F894DEBF0FBECDBF67FFDC
:105A500003C01092140E60E05091140E262F062EF3
:105A6000000C330B5217130609F024F56093140E43
:105A700019821F8E442339F14EE150E0BC01CE0162
:105A800001960F94153F44E550E0BE016F5F7F4FD4
:105A90008FEA94E10F94CA4A84E590E099A388A321
:105AA000CE0180960F9466191092130E1092120E6A
:105AB0001092110EA1960FB6F894DEBF0FBECDBFA7
:105AC000DF91CF9108954EE150E0BC01CE010196E7
:105AD0000F94CA4AD8CF0F931F930F94282900918F
